{
  "_format": "hh-sol-artifact-1",
  "contractName": "CredentialRegistry",
  "sourceName": "contracts/CredentialRegistry.sol",
  "abi": [
    {
      "inputs": [],
      "stateMutability": "nonpayable",
      "type": "constructor"
    },
    {
      "inputs": [],
      "name": "AccessControlBadConfirmation",
      "type": "error"
    },
    {
      "inputs": [
        {
          "internalType": "address",
          "name": "account",
          "type": "address"
        },
        {
          "internalType": "bytes32",
          "name": "neededRole",
          "type": "bytes32"
        }
      ],
      "name": "AccessControlUnauthorizedAccount",
      "type": "error"
    },
    {
      "inputs": [],
      "name": "CredentialExists",
      "type": "error"
    },
    {
      "inputs": [],
      "name": "InvalidCredential",
      "type": "error"
    },
    {
      "inputs": [],
      "name": "InvalidSignature",
      "type": "error"
    },
    {
      "inputs": [],
      "name": "NotIssuer",
      "type": "error"
    },
    {
      "anonymous": false,
      "inputs": [
        {
          "indexed": true,
          "internalType": "bytes32",
          "name": "credentialHash",
          "type": "bytes32"
        },
        {
          "indexed": false,
          "internalType": "address",
          "name": "by",
          "type": "address"
        },
        {
          "indexed": false,
          "internalType": "address",
          "name": "to",
          "type": "address"
        },
        {
          "indexed": false,
          "internalType": "uint256",
          "name": "iat",
          "type": "uint256"
        },
        {
          "indexed": false,
          "internalType": "uint256",
          "name": "nonce",
          "type": "uint256"
        }
      ],
      "name": "CredentialRegistered",
      "type": "event"
    },
    {
      "anonymous": false,
      "inputs": [
        {
          "indexed": true,
          "internalType": "bytes32",
          "name": "credentialHash",
          "type": "bytes32"
        },
        {
          "indexed": false,
          "internalType": "address",
          "name": "by",
          "type": "address"
        },
        {
          "indexed": false,
          "internalType": "uint256",
          "name": "date",
          "type": "uint256"
        }
      ],
      "name": "CredentialRevoked",
      "type": "event"
    },
    {
      "anonymous": false,
      "inputs": [
        {
          "indexed": true,
          "internalType": "bytes32",
          "name": "role",
          "type": "bytes32"
        },
        {
          "indexed": true,
          "internalType": "bytes32",
          "name": "previousAdminRole",
          "type": "bytes32"
        },
        {
          "indexed": true,
          "internalType": "bytes32",
          "name": "newAdminRole",
          "type": "bytes32"
        }
      ],
      "name": "RoleAdminChanged",
      "type": "event"
    },
    {
      "anonymous": false,
      "inputs": [
        {
          "indexed": true,
          "internalType": "bytes32",
          "name": "role",
          "type": "bytes32"
        },
        {
          "indexed": true,
          "internalType": "address",
          "name": "account",
          "type": "address"
        },
        {
          "indexed": true,
          "internalType": "address",
          "name": "sender",
          "type": "address"
        }
      ],
      "name": "RoleGranted",
      "type": "event"
    },
    {
      "anonymous": false,
      "inputs": [
        {
          "indexed": true,
          "internalType": "bytes32",
          "name": "role",
          "type": "bytes32"
        },
        {
          "indexed": true,
          "internalType": "address",
          "name": "account",
          "type": "address"
        },
        {
          "indexed": true,
          "internalType": "address",
          "name": "sender",
          "type": "address"
        }
      ],
      "name": "RoleRevoked",
      "type": "event"
    },
    {
      "inputs": [],
      "name": "DEFAULT_ADMIN_ROLE",
      "outputs": [
        {
          "internalType": "bytes32",
          "name": "",
          "type": "bytes32"
        }
      ],
      "stateMutability": "view",
      "type": "function"
    },
    {
      "inputs": [],
      "name": "ISSUER_ROLE",
      "outputs": [
        {
          "internalType": "bytes32",
          "name": "",
          "type": "bytes32"
        }
      ],
      "stateMutability": "view",
      "type": "function"
    },
    {
      "inputs": [
        {
          "internalType": "bytes32",
          "name": "",
          "type": "bytes32"
        },
        {
          "internalType": "address",
          "name": "",
          "type": "address"
        }
      ],
      "name": "credentials",
      "outputs": [
        {
          "internalType": "address",
          "name": "issuer",
          "type": "address"
        },
        {
          "internalType": "address",
          "name": "subject",
          "type": "address"
        },
        {
          "internalType": "uint256",
          "name": "validFrom",
          "type": "uint256"
        },
        {
          "internalType": "uint256",
          "name": "validTo",
          "type": "uint256"
        },
        {
          "internalType": "bool",
          "name": "status",
          "type": "bool"
        }
      ],
      "stateMutability": "view",
      "type": "function"
    },
    {
      "inputs": [
        {
          "internalType": "bytes32",
          "name": "_credentialHash",
          "type": "bytes32"
        },
        {
          "internalType": "address",
          "name": "issuer",
          "type": "address"
        }
      ],
      "name": "exist",
      "outputs": [
        {
          "internalType": "bool",
          "name": "",
          "type": "bool"
        }
      ],
      "stateMutability": "view",
      "type": "function"
    },
    {
      "inputs": [
        {
          "internalType": "bytes32",
          "name": "_credentialHash",
          "type": "bytes32"
        },
        {
          "internalType": "address",
          "name": "_issuer",
          "type": "address"
        }
      ],
      "name": "getCredential",
      "outputs": [
        {
          "components": [
            {
              "internalType": "address",
              "name": "issuer",
              "type": "address"
            },
            {
              "internalType": "address",
              "name": "subject",
              "type": "address"
            },
            {
              "internalType": "uint256",
              "name": "validFrom",
              "type": "uint256"
            },
            {
              "internalType": "uint256",
              "name": "validTo",
              "type": "uint256"
            },
            {
              "internalType": "bool",
              "name": "status",
              "type": "bool"
            }
          ],
          "internalType": "struct ICredentialRegistry.CredentialMetadataView",
          "name": "",
          "type": "tuple"
        }
      ],
      "stateMutability": "view",
      "type": "function"
    },
    {
      "inputs": [
        {
          "internalType": "bytes32",
          "name": "digest",
          "type": "bytes32"
        },
        {
          "internalType": "uint8",
          "name": "v",
          "type": "uint8"
        },
        {
          "internalType": "bytes32",
          "name": "r",
          "type": "bytes32"
        },
        {
          "internalType": "bytes32",
          "name": "s",
          "type": "bytes32"
        }
      ],
      "name": "getIssuer",
      "outputs": [
        {
          "internalType": "address",
          "name": "issuer",
          "type": "address"
        }
      ],
      "stateMutability": "pure",
      "type": "function"
    },
    {
      "inputs": [
        {
          "internalType": "bytes32",
          "name": "role",
          "type": "bytes32"
        }
      ],
      "name": "getRoleAdmin",
      "outputs": [
        {
          "internalType": "bytes32",
          "name": "",
          "type": "bytes32"
        }
      ],
      "stateMutability": "view",
      "type": "function"
    },
    {
      "inputs": [
        {
          "internalType": "bytes32",
          "name": "role",
          "type": "bytes32"
        },
        {
          "internalType": "address",
          "name": "account",
          "type": "address"
        }
      ],
      "name": "grantRole",
      "outputs": [],
      "stateMutability": "nonpayable",
      "type": "function"
    },
    {
      "inputs": [
        {
          "internalType": "bytes32",
          "name": "role",
          "type": "bytes32"
        },
        {
          "internalType": "address",
          "name": "account",
          "type": "address"
        }
      ],
      "name": "hasRole",
      "outputs": [
        {
          "internalType": "bool",
          "name": "",
          "type": "bool"
        }
      ],
      "stateMutability": "view",
      "type": "function"
    },
    {
      "inputs": [
        {
          "internalType": "bytes32",
          "name": "_vcTypeHash",
          "type": "bytes32"
        },
        {
          "internalType": "address",
          "name": "_issuer",
          "type": "address"
        },
        {
          "internalType": "address",
          "name": "_subject",
          "type": "address"
        },
        {
          "internalType": "bytes32",
          "name": "_credentialSubjectHex",
          "type": "bytes32"
        },
        {
          "internalType": "uint256",
          "name": "_validFrom",
          "type": "uint256"
        },
        {
          "internalType": "uint256",
          "name": "_validTo",
          "type": "uint256"
        }
      ],
      "name": "hashVerifiableCredential",
      "outputs": [
        {
          "internalType": "bytes32",
          "name": "",
          "type": "bytes32"
        }
      ],
      "stateMutability": "pure",
      "type": "function"
    },
    {
      "inputs": [
        {
          "internalType": "address",
          "name": "",
          "type": "address"
        }
      ],
      "name": "nonces",
      "outputs": [
        {
          "internalType": "uint256",
          "name": "",
          "type": "uint256"
        }
      ],
      "stateMutability": "view",
      "type": "function"
    },
    {
      "inputs": [
        {
          "internalType": "address",
          "name": "_issuer",
          "type": "address"
        },
        {
          "internalType": "address",
          "name": "_subject",
          "type": "address"
        },
        {
          "internalType": "bytes32",
          "name": "_credentialHash",
          "type": "bytes32"
        },
        {
          "internalType": "uint256",
          "name": "_from",
          "type": "uint256"
        },
        {
          "internalType": "uint256",
          "name": "_exp",
          "type": "uint256"
        },
        {
          "components": [
            {
              "internalType": "uint8",
              "name": "v",
              "type": "uint8"
            },
            {
              "internalType": "bytes32",
              "name": "r",
              "type": "bytes32"
            },
            {
              "internalType": "bytes32",
              "name": "s",
              "type": "bytes32"
            }
          ],
          "internalType": "struct ICredentialRegistry.Signature",
          "name": "_signaturePart",
          "type": "tuple"
        }
      ],
      "name": "registerCredential",
      "outputs": [],
      "stateMutability": "nonpayable",
      "type": "function"
    },
    {
      "inputs": [
        {
          "internalType": "address",
          "name": "_issuer",
          "type": "address"
        },
        {
          "internalType": "address",
          "name": "_subject",
          "type": "address"
        },
        {
          "internalType": "bytes32",
          "name": "_credentialHash",
          "type": "bytes32"
        },
        {
          "internalType": "uint256",
          "name": "_from",
          "type": "uint256"
        },
        {
          "internalType": "uint256",
          "name": "_exp",
          "type": "uint256"
        }
      ],
      "name": "registerCredentialEOA",
      "outputs": [],
      "stateMutability": "nonpayable",
      "type": "function"
    },
    {
      "inputs": [
        {
          "internalType": "bytes32",
          "name": "role",
          "type": "bytes32"
        },
        {
          "internalType": "address",
          "name": "callerConfirmation",
          "type": "address"
        }
      ],
      "name": "renounceRole",
      "outputs": [],
      "stateMutability": "nonpayable",
      "type": "function"
    },
    {
      "inputs": [
        {
          "internalType": "bytes32",
          "name": "_credentialHash",
          "type": "bytes32"
        },
        {
          "components": [
            {
              "internalType": "uint8",
              "name": "v",
              "type": "uint8"
            },
            {
              "internalType": "bytes32",
              "name": "r",
              "type": "bytes32"
            },
            {
              "internalType": "bytes32",
              "name": "s",
              "type": "bytes32"
            }
          ],
          "internalType": "struct ICredentialRegistry.Signature",
          "name": "_signaturePart",
          "type": "tuple"
        },
        {
          "internalType": "bytes32",
          "name": "_domainSeparator",
          "type": "bytes32"
        },
        {
          "internalType": "address",
          "name": "_issuer",
          "type": "address"
        }
      ],
      "name": "revokeCredential",
      "outputs": [],
      "stateMutability": "nonpayable",
      "type": "function"
    },
    {
      "inputs": [
        {
          "internalType": "bytes32",
          "name": "_credentialHash",
          "type": "bytes32"
        },
        {
          "internalType": "address",
          "name": "_issuer",
          "type": "address"
        }
      ],
      "name": "revokeCredentialEOA",
      "outputs": [],
      "stateMutability": "nonpayable",
      "type": "function"
    },
    {
      "inputs": [
        {
          "internalType": "bytes32",
          "name": "role",
          "type": "bytes32"
        },
        {
          "internalType": "address",
          "name": "account",
          "type": "address"
        }
      ],
      "name": "revokeRole",
      "outputs": [],
      "stateMutability": "nonpayable",
      "type": "function"
    },
    {
      "inputs": [
        {
          "internalType": "bytes4",
          "name": "interfaceId",
          "type": "bytes4"
        }
      ],
      "name": "supportsInterface",
      "outputs": [
        {
          "internalType": "bool",
          "name": "",
          "type": "bool"
        }
      ],
      "stateMutability": "view",
      "type": "function"
    },
    {
      "inputs": [
        {
          "internalType": "bytes32",
          "name": "_credentialHash",
          "type": "bytes32"
        },
        {
          "internalType": "address",
          "name": "issuer",
          "type": "address"
        }
      ],
      "name": "validate",
      "outputs": [
        {
          "internalType": "bool",
          "name": "",
          "type": "bool"
        }
      ],
      "stateMutability": "view",
      "type": "function"
    },
    {
      "inputs": [
        {
          "internalType": "address",
          "name": "issuer",
          "type": "address"
        },
        {
          "internalType": "address",
          "name": "signer",
          "type": "address"
        }
      ],
      "name": "verifyIssuer",
      "outputs": [
        {
          "internalType": "bool",
          "name": "",
          "type": "bool"
        }
      ],
      "stateMutability": "pure",
      "type": "function"
    }
  ],
  "bytecode": "0x6080604052346100225761001233610027565b5060405161115f90816100b88239f35b600080fd5b6001600160a01b031660008181527fad3228b676f7d3cd4284a5443f17f1962b36e491b30a40b2405849e597ba5fb5602052604081205490919060ff166100b357818052816020526040822081835260205260408220600160ff1982541617905533917f2f8788117e7eff1d82e926ec794901d17c78024a50270940304540a733656f0d8180a4600190565b509056fe608060408181526004908136101561001657600080fd5b600092833560e01c90816301ffc9a714610d2a57508063248a9ca314610d0057806328073c7c14610c355780632f2ff15d14610c0d57806336568abe14610bad57806358325f3c14610b0d5780635c1443941461096e5780637b650355146106835780637ecebe001461064c57806382aefa241461061157806384fb67d2146105e957806387cf356e146105b05780639052944e1461053f57806391d14854146104fa578063957839d91461049e578063a217fddf14610483578063d547741f14610446578063f078e5db146103d1578063f12a3d8d146101e55763f1b224ff1461010057600080fd5b346101e157806003193601126101e15781359161011b610dc9565b6001600160a01b038116610130338214610e48565b84865260016020528386209086526020528285209161014f8286610e93565b156101d357507f80d4746828447d65eceb938c7f9d85fbeb232fe7819d5209ed452b3940f8904b92916101b46101af60059387600052600160205260406000206001600160a01b0380921660005260205260016040600020015416151590565b610ee9565b01805460ff191690555133815242602082015280604081015b0390a280f35b835163caa03ea560e01b8152fd5b8280fd5b508290346103cd5760c03660031901126103cd5782359060603660231901126101e157805161021381610e2c565b60243560ff811681036103c9578152602094604435868301526064358383015260a4356001600160a01b038116928382036103c557858752600188528487208488528852848720936102658388610e93565b156103b65761029f6101af8489600052600160205260406000206001600160a01b0380921660005260205260016040600020015416151590565b85516001600160a01b0384168a82019081526020810189905290998a60408301601f199190038181018d52601f01168b019167ffffffffffffffff83118c8410176103a35788999a9b8361034d98999a52519020928b5260028152888b2054908201927f190100000000000000000000000000000000000000000000000000000000000084526084356022840152604283015260628201526062815261034481610dfa565b51902090611088565b50156103955750600501805460ff19169055513381524260208201527f80d4746828447d65eceb938c7f9d85fbeb232fe7819d5209ed452b3940f8904b9080604081016101cd565b8251638baa579f60e01b8152fd5b60248b604189634e487b7160e01b835252fd5b83865163caa03ea560e01b8152fd5b8680fd5b8480fd5b5080fd5b50346101e157806003193601126101e1578060a0936103ee610dc9565b9335815260016020528181206001600160a01b0380951682526020522082815416926001820154169160028201549060ff60056003850154940154169381519586526020860152840152606083015215156080820152f35b50346101e157806003193601126101e15761047f913561047a6001610469610dc9565b938387528660205286200154610f34565b611012565b5080f35b8382346103cd57816003193601126103cd5751908152602090f35b5082346104f757816003193601126104f757506104ee6020926104bf610dc9565b9035600052600160205260406000206001600160a01b0380921660005260205260016040600020015416151590565b90519015158152f35b80fd5b5090346101e157816003193601126101e1578160209360ff9261051b610dc9565b903582528186526001600160a01b0383832091168252855220541690519015158152f35b5090346101e15760803660031901126101e1578260243560ff811681036103cd5783519235835260ff16602080840191909152604435604084015260643560608401528180529160809060015afa156105a6576001600160a01b0360209251915191168152f35b51903d90823e3d90fd5b8382346103cd57806003193601126103cd576020906105cd610de4565b6001600160a01b03806105de610dc9565b169116149051908152f35b5082346104f757816003193601126104f757506104ee60209261060a610dc9565b9035610e93565b8382346103cd57816003193601126103cd57602090517f114e74f6ea3bd819998f78687bfcb11b140da08e9b7d222fa9c1f1ba1f2aa1228152f35b8382346103cd5760203660031901126103cd57806020926001600160a01b03610673610de4565b1681526002845220549051908152f35b508290346103cd576101003660031901126103cd576106a0610de4565b6106a8610dc9565b9060443592606435606060a31936011261096a5781516106c781610e2c565b60a43560ff8116810361096657815286602091878382019160c43583528681019060e4358252828552600186528785206001600160a01b0390818b1680975287528c60ff8a61071a8d8285209887611088565b7f114e74f6ea3bd819998f78687bfcb11b140da08e9b7d222fa9c1f1ba1f2aa1228552848c5282852090861685528b52922054161561093e571561092f5761078a8a8d600052600160205260406000206001600160a01b0380921660005260205260016040600020015416151590565b8061091f575b61091057907fff000000000000000000000000000000000000000000000000000000000000009173ffffffffffffffffffffffffffffffffffffffff19878187541617865560018601918d16908254161790558760028501556084356003850155600584019460ff1995600187825416179055519251905190895193888501528984015260f81b16606082015260418152608091608082019282841067ffffffffffffffff8511176108fc5783895282518e918e5b8281106108e25750509101608091830191820152038401902080549091166001179055875260029052818620546000198101929083116108cf57516001600160a01b039384168152939092166020840152604083019190915260608201527f0c1ba24cf3bfd698fd347943ef2a1e3b70aaf17dc953759c1abcb5edc59395469080608081016101cd565b60248760118a634e487b7160e01b835252fd5b8991929350808601838382015191015201908f9291610845565b5060248c60418f634e487b7160e01b835252fd5b8d8951632a8fa8ab60e21b8152fd5b5061092a8a8d610e93565b610790565b8d8951638baa579f60e01b8152fd5b8e8a517f54ec5063000000000000000000000000000000000000000000000000000000008152fd5b8780fd5b8580fd5b50346101e15760a03660031901126101e157610988610de4565b610990610dc9565b9160443593606435907f114e74f6ea3bd819998f78687bfcb11b140da08e9b7d222fa9c1f1ba1f2aa1228752866020528287203388526020526109d860ff8489205416610e48565b6001600160a01b0390818516916109f0338414610e48565b8789526001602052848920838a5260205284892091610a37878a600052600160205260406000206001600160a01b0380921660005260205260016040600020015416151590565b80610afd575b610aef57509160056101cd94927f0c1ba24cf3bfd698fd347943ef2a1e3b70aaf17dc953759c1abcb5edc59395469897969473ffffffffffffffffffffffffffffffffffffffff19848184541617835560018301918a1690825416179055836002820155608435600382015501600160ff198254161790558852600260205281882054915194859485909260609295949360808301966001600160a01b03809216845216602083015260408201520152565b8551632a8fa8ab60e21b8152fd5b50610b08878a610e93565b610a3d565b508290346103cd5760c03660031901126103cd57610b29610dc9565b90604435906001600160a01b03918281168091036103c95781519260208401948735865216828401526060830152606435608083015260843560a083015260a43560c083015260c0825260e082019382851067ffffffffffffffff861117610b9a5750602094508390525190208152f35b80604187634e487b7160e01b6024945252fd5b508290346103cd57806003193601126103cd57610bc8610dc9565b90336001600160a01b03831603610be5575061047f919235611012565b8390517f6697b232000000000000000000000000000000000000000000000000000000008152fd5b50346101e157806003193601126101e15761047f9135610c306001610469610dc9565b610f93565b5090346101e157816003193601126101e1578160a093610c53610dc9565b928160808451610c6281610dfa565b8281528260208201528286820152826060820152015235815260016020528181206001600160a01b038094168252602052208181541692826001830154169260028301549060ff60056003860154950154169460808451610cc281610dfa565b888152602081019283528581019485526060810196875201951515865283519687525116602086015251908401525160608301525115156080820152f35b5090346101e15760203660031901126101e157816020936001923581528085522001549051908152f35b849084346101e15760203660031901126101e157357fffffffff0000000000000000000000000000000000000000000000000000000081168091036101e157602092507f7965db0b000000000000000000000000000000000000000000000000000000008114908115610d9f575b5015158152f35b7f01ffc9a70000000000000000000000000000000000000000000000000000000091501483610d98565b602435906001600160a01b0382168203610ddf57565b600080fd5b600435906001600160a01b0382168203610ddf57565b60a0810190811067ffffffffffffffff821117610e1657604052565b634e487b7160e01b600052604160045260246000fd5b6060810190811067ffffffffffffffff821117610e1657604052565b15610e4f57565b606460405162461bcd60e51b815260206004820152600a60248201527f4e6f7420697373756572000000000000000000000000000000000000000000006044820152fd5b60005260016020526001600160a01b0360406000209116600052602052604060002060028101544210159081610ed9575b81610ecd575090565b60ff9150600501541690565b9050426003820154101590610ec4565b15610ef057565b606460405162461bcd60e51b815260206004820152601860248201527f43726564656e7469616c20646f65736e277420657869737400000000000000006044820152fd5b80600052600060205260406000203360005260205260ff6040600020541615610f5a5750565b6040517fe2517d3f0000000000000000000000000000000000000000000000000000000081523360048201526024810191909152604490fd5b90600091808352826020526001600160a01b036040842092169182845260205260ff6040842054161560001461100d57808352826020526040832082845260205260408320600160ff198254161790557f2f8788117e7eff1d82e926ec794901d17c78024a50270940304540a733656f0d339380a4600190565b505090565b90600091808352826020526001600160a01b036040842092169182845260205260ff60408420541660001461100d5780835282602052604083208284526020526040832060ff1981541690557ff6391f5c32d9c69d2a47ea670b442974b53935d1edc7fd64eb21e047a839171b339380a4600190565b8051602080830151604093840151845195865260ff909316858301529284019290925260608301526000808052939291849060809060015afa1561111e578251926001600160a01b038085169216821491826110e5575b50509190565b815260026020526040812080549091600019821461110a5750600101905538806110df565b80634e487b7160e01b602492526011600452fd5b6040513d84823e3d90fdfea2646970667358221220a54052945adb751612cd4bef6dbe648ac2411ca795bdecc6030302fda8c94ad664736f6c63430008180033",
  "linkReferences": {},
  "deployedLinkReferences": {}
}