{
  "_format": "hh-sol-artifact-1",
  "contractName": "CredentialRegistry",
  "sourceName": "contracts/CredentialRegistry.sol",
  "abi": [
    {
      "inputs": [],
      "stateMutability": "nonpayable",
      "type": "constructor"
    },
    {
      "inputs": [],
      "name": "AccessControlBadConfirmation",
      "type": "error"
    },
    {
      "inputs": [
        {
          "internalType": "address",
          "name": "account",
          "type": "address"
        },
        {
          "internalType": "bytes32",
          "name": "neededRole",
          "type": "bytes32"
        }
      ],
      "name": "AccessControlUnauthorizedAccount",
      "type": "error"
    },
    {
      "inputs": [],
      "name": "CredentialExists",
      "type": "error"
    },
    {
      "inputs": [],
      "name": "InvalidCredential",
      "type": "error"
    },
    {
      "inputs": [],
      "name": "InvalidSignature",
      "type": "error"
    },
    {
      "anonymous": false,
      "inputs": [
        {
          "indexed": true,
          "internalType": "bytes32",
          "name": "credentialHash",
          "type": "bytes32"
        },
        {
          "indexed": false,
          "internalType": "address",
          "name": "by",
          "type": "address"
        },
        {
          "indexed": false,
          "internalType": "address",
          "name": "id",
          "type": "address"
        },
        {
          "indexed": false,
          "internalType": "uint256",
          "name": "iat",
          "type": "uint256"
        },
        {
          "indexed": false,
          "internalType": "bytes",
          "name": "proof",
          "type": "bytes"
        },
        {
          "indexed": false,
          "internalType": "uint256",
          "name": "nonce",
          "type": "uint256"
        }
      ],
      "name": "CredentialRegistered",
      "type": "event"
    },
    {
      "anonymous": false,
      "inputs": [
        {
          "indexed": true,
          "internalType": "bytes32",
          "name": "credentialHash",
          "type": "bytes32"
        },
        {
          "indexed": false,
          "internalType": "address",
          "name": "by",
          "type": "address"
        },
        {
          "indexed": false,
          "internalType": "uint256",
          "name": "date",
          "type": "uint256"
        }
      ],
      "name": "CredentialRevoked",
      "type": "event"
    },
    {
      "anonymous": false,
      "inputs": [
        {
          "indexed": true,
          "internalType": "bytes32",
          "name": "role",
          "type": "bytes32"
        },
        {
          "indexed": true,
          "internalType": "bytes32",
          "name": "previousAdminRole",
          "type": "bytes32"
        },
        {
          "indexed": true,
          "internalType": "bytes32",
          "name": "newAdminRole",
          "type": "bytes32"
        }
      ],
      "name": "RoleAdminChanged",
      "type": "event"
    },
    {
      "anonymous": false,
      "inputs": [
        {
          "indexed": true,
          "internalType": "bytes32",
          "name": "role",
          "type": "bytes32"
        },
        {
          "indexed": true,
          "internalType": "address",
          "name": "account",
          "type": "address"
        },
        {
          "indexed": true,
          "internalType": "address",
          "name": "sender",
          "type": "address"
        }
      ],
      "name": "RoleGranted",
      "type": "event"
    },
    {
      "anonymous": false,
      "inputs": [
        {
          "indexed": true,
          "internalType": "bytes32",
          "name": "role",
          "type": "bytes32"
        },
        {
          "indexed": true,
          "internalType": "address",
          "name": "account",
          "type": "address"
        },
        {
          "indexed": true,
          "internalType": "address",
          "name": "sender",
          "type": "address"
        }
      ],
      "name": "RoleRevoked",
      "type": "event"
    },
    {
      "inputs": [],
      "name": "DEFAULT_ADMIN_ROLE",
      "outputs": [
        {
          "internalType": "bytes32",
          "name": "",
          "type": "bytes32"
        }
      ],
      "stateMutability": "view",
      "type": "function"
    },
    {
      "inputs": [],
      "name": "ISSUER_ROLE",
      "outputs": [
        {
          "internalType": "bytes32",
          "name": "",
          "type": "bytes32"
        }
      ],
      "stateMutability": "view",
      "type": "function"
    },
    {
      "inputs": [
        {
          "internalType": "bytes32",
          "name": "",
          "type": "bytes32"
        },
        {
          "internalType": "address",
          "name": "",
          "type": "address"
        }
      ],
      "name": "credentials",
      "outputs": [
        {
          "internalType": "address",
          "name": "issuer",
          "type": "address"
        },
        {
          "internalType": "address",
          "name": "subject",
          "type": "address"
        },
        {
          "internalType": "uint256",
          "name": "validFrom",
          "type": "uint256"
        },
        {
          "internalType": "uint256",
          "name": "validTo",
          "type": "uint256"
        },
        {
          "internalType": "bool",
          "name": "status",
          "type": "bool"
        }
      ],
      "stateMutability": "view",
      "type": "function"
    },
    {
      "inputs": [
        {
          "internalType": "bytes32",
          "name": "_credentialHash",
          "type": "bytes32"
        },
        {
          "internalType": "address",
          "name": "issuer",
          "type": "address"
        }
      ],
      "name": "exist",
      "outputs": [
        {
          "internalType": "bool",
          "name": "",
          "type": "bool"
        }
      ],
      "stateMutability": "view",
      "type": "function"
    },
    {
      "inputs": [
        {
          "internalType": "bytes32",
          "name": "_credentialHash",
          "type": "bytes32"
        },
        {
          "internalType": "address",
          "name": "_issuer",
          "type": "address"
        }
      ],
      "name": "getCredential",
      "outputs": [
        {
          "components": [
            {
              "internalType": "address",
              "name": "issuer",
              "type": "address"
            },
            {
              "internalType": "address",
              "name": "subject",
              "type": "address"
            },
            {
              "internalType": "uint256",
              "name": "validFrom",
              "type": "uint256"
            },
            {
              "internalType": "uint256",
              "name": "validTo",
              "type": "uint256"
            },
            {
              "internalType": "bool",
              "name": "status",
              "type": "bool"
            }
          ],
          "internalType": "struct ICredentialRegistry.CredentialMetadataView",
          "name": "",
          "type": "tuple"
        }
      ],
      "stateMutability": "view",
      "type": "function"
    },
    {
      "inputs": [
        {
          "internalType": "bytes32",
          "name": "digest",
          "type": "bytes32"
        },
        {
          "internalType": "uint8",
          "name": "v",
          "type": "uint8"
        },
        {
          "internalType": "bytes32",
          "name": "r",
          "type": "bytes32"
        },
        {
          "internalType": "bytes32",
          "name": "s",
          "type": "bytes32"
        }
      ],
      "name": "getIssuer",
      "outputs": [
        {
          "internalType": "address",
          "name": "issuer",
          "type": "address"
        }
      ],
      "stateMutability": "pure",
      "type": "function"
    },
    {
      "inputs": [
        {
          "internalType": "bytes32",
          "name": "role",
          "type": "bytes32"
        }
      ],
      "name": "getRoleAdmin",
      "outputs": [
        {
          "internalType": "bytes32",
          "name": "",
          "type": "bytes32"
        }
      ],
      "stateMutability": "view",
      "type": "function"
    },
    {
      "inputs": [
        {
          "internalType": "bytes32",
          "name": "role",
          "type": "bytes32"
        },
        {
          "internalType": "address",
          "name": "account",
          "type": "address"
        }
      ],
      "name": "grantRole",
      "outputs": [],
      "stateMutability": "nonpayable",
      "type": "function"
    },
    {
      "inputs": [
        {
          "internalType": "bytes32",
          "name": "role",
          "type": "bytes32"
        },
        {
          "internalType": "address",
          "name": "account",
          "type": "address"
        }
      ],
      "name": "hasRole",
      "outputs": [
        {
          "internalType": "bool",
          "name": "",
          "type": "bool"
        }
      ],
      "stateMutability": "view",
      "type": "function"
    },
    {
      "inputs": [
        {
          "internalType": "address",
          "name": "_issuer",
          "type": "address"
        },
        {
          "internalType": "address",
          "name": "_subject",
          "type": "address"
        },
        {
          "internalType": "bytes32",
          "name": "_credentialSubjectHex",
          "type": "bytes32"
        },
        {
          "internalType": "uint256",
          "name": "_validFrom",
          "type": "uint256"
        },
        {
          "internalType": "uint256",
          "name": "_validTo",
          "type": "uint256"
        }
      ],
      "name": "hashVerifiableCredential",
      "outputs": [
        {
          "internalType": "bytes32",
          "name": "",
          "type": "bytes32"
        }
      ],
      "stateMutability": "pure",
      "type": "function"
    },
    {
      "inputs": [
        {
          "internalType": "address",
          "name": "",
          "type": "address"
        }
      ],
      "name": "nonces",
      "outputs": [
        {
          "internalType": "uint256",
          "name": "",
          "type": "uint256"
        }
      ],
      "stateMutability": "view",
      "type": "function"
    },
    {
      "inputs": [
        {
          "internalType": "address",
          "name": "_issuer",
          "type": "address"
        },
        {
          "internalType": "address",
          "name": "_subject",
          "type": "address"
        },
        {
          "internalType": "bytes32",
          "name": "_credentialHash",
          "type": "bytes32"
        },
        {
          "internalType": "uint256",
          "name": "_from",
          "type": "uint256"
        },
        {
          "internalType": "uint256",
          "name": "_exp",
          "type": "uint256"
        },
        {
          "components": [
            {
              "internalType": "uint8",
              "name": "v",
              "type": "uint8"
            },
            {
              "internalType": "bytes32",
              "name": "r",
              "type": "bytes32"
            },
            {
              "internalType": "bytes32",
              "name": "s",
              "type": "bytes32"
            }
          ],
          "internalType": "struct ICredentialRegistry.Signature",
          "name": "_signaturePart",
          "type": "tuple"
        }
      ],
      "name": "registerCredential",
      "outputs": [],
      "stateMutability": "nonpayable",
      "type": "function"
    },
    {
      "inputs": [
        {
          "internalType": "bytes32",
          "name": "role",
          "type": "bytes32"
        },
        {
          "internalType": "address",
          "name": "callerConfirmation",
          "type": "address"
        }
      ],
      "name": "renounceRole",
      "outputs": [],
      "stateMutability": "nonpayable",
      "type": "function"
    },
    {
      "inputs": [
        {
          "internalType": "bytes32",
          "name": "_credentialHash",
          "type": "bytes32"
        },
        {
          "components": [
            {
              "internalType": "uint8",
              "name": "v",
              "type": "uint8"
            },
            {
              "internalType": "bytes32",
              "name": "r",
              "type": "bytes32"
            },
            {
              "internalType": "bytes32",
              "name": "s",
              "type": "bytes32"
            }
          ],
          "internalType": "struct ICredentialRegistry.Signature",
          "name": "_signaturePart",
          "type": "tuple"
        },
        {
          "internalType": "address",
          "name": "_issuer",
          "type": "address"
        }
      ],
      "name": "revokeCredential",
      "outputs": [],
      "stateMutability": "nonpayable",
      "type": "function"
    },
    {
      "inputs": [
        {
          "internalType": "bytes32",
          "name": "role",
          "type": "bytes32"
        },
        {
          "internalType": "address",
          "name": "account",
          "type": "address"
        }
      ],
      "name": "revokeRole",
      "outputs": [],
      "stateMutability": "nonpayable",
      "type": "function"
    },
    {
      "inputs": [
        {
          "internalType": "bytes4",
          "name": "interfaceId",
          "type": "bytes4"
        }
      ],
      "name": "supportsInterface",
      "outputs": [
        {
          "internalType": "bool",
          "name": "",
          "type": "bool"
        }
      ],
      "stateMutability": "view",
      "type": "function"
    },
    {
      "inputs": [
        {
          "internalType": "bytes32",
          "name": "_credentialHash",
          "type": "bytes32"
        },
        {
          "internalType": "address",
          "name": "issuer",
          "type": "address"
        }
      ],
      "name": "validate",
      "outputs": [
        {
          "internalType": "bool",
          "name": "",
          "type": "bool"
        }
      ],
      "stateMutability": "view",
      "type": "function"
    },
    {
      "inputs": [
        {
          "internalType": "address",
          "name": "issuer",
          "type": "address"
        },
        {
          "internalType": "address",
          "name": "signer",
          "type": "address"
        }
      ],
      "name": "verifyIssuer",
      "outputs": [
        {
          "internalType": "bool",
          "name": "",
          "type": "bool"
        }
      ],
      "stateMutability": "pure",
      "type": "function"
    }
  ],
  "bytecode": "0x6080604052346100225761001233610027565b50604051610e5590816100b88239f35b600080fd5b6001600160a01b031660008181527fad3228b676f7d3cd4284a5443f17f1962b36e491b30a40b2405849e597ba5fb5602052604081205490919060ff166100b357818052816020526040822081835260205260408220600160ff1982541617905533917f2f8788117e7eff1d82e926ec794901d17c78024a50270940304540a733656f0d8180a4600190565b509056fe608060408181526004908136101561001657600080fd5b600092833560e01c90816301ffc9a714610a8857508063248a9ca314610a5e57806328073c7c146109935780632f2ff15d1461096b57806336568abe1461090b5780634f5a9bba1461087657806375ab004a146106295780637b650355146103a35780637ecebe001461036c57806382aefa241461033157806384fb67d21461030957806387cf356e146102d05780639052944e1461025f57806391d148541461021a578063957839d9146101be578063a217fddf1461019f578063d547741f146101625763f078e5db146100ea57600080fd5b3461015e578060031936011261015e578060a093610106610b27565b9335815260016020528181206001600160a01b0380951682526020522082815416926001820154169160028201549060ff60056003850154940154169381519586526020860152840152606083015215156080820152f35b8280fd5b503461015e578060031936011261015e5761019b91356101966001610185610b27565b938387528660205286200154610c3b565b610d19565b5080f35b8382346101ba57816003193601126101ba5751908152602090f35b5080fd5b5082346102175781600319360112610217575061020e6020926101df610b27565b9035600052600160205260406000206001600160a01b0380921660005260205260016040600020015416151590565b90519015158152f35b80fd5b50903461015e578160031936011261015e578160209360ff9261023b610b27565b903582528186526001600160a01b0383832091168252855220541690519015158152f35b50903461015e57608036600319011261015e578260243560ff811681036101ba5783519235835260ff16602080840191909152604435604084015260643560608401528180529160809060015afa156102c6576001600160a01b0360209251915191168152f35b51903d90823e3d90fd5b8382346101ba57806003193601126101ba576020906102ed610b42565b6001600160a01b03806102fe610b27565b169116149051908152f35b5082346102175781600319360112610217575061020e60209261032a610b27565b9035610be5565b8382346101ba57816003193601126101ba57602090517f114e74f6ea3bd819998f78687bfcb11b140da08e9b7d222fa9c1f1ba1f2aa1228152f35b8382346101ba5760203660031901126101ba57806020926001600160a01b03610393610b42565b1681526002845220549051908152f35b508290346101ba576101003660031901126101ba576103c0610b42565b6103c8610b27565b60443592606435929160603660a31901126106255781516103e881610b8a565b60a43560ff811681036106215781526020948582019360c43585528083019460e4358652888a5260018852818a20966001600160a01b039586821698898d528a52838c2091610438818d89610d8f565b156106125761046f818d600052600160205260406000206001600160a01b0380921660005260205260016040600020015416151590565b9081610601575b506105d957906001917fffffffffffffffffffffffff0000000000000000000000000000000000000000978a898454161783558383019116809882541617905584600282015560843560038201557fff00000000000000000000000000000000000000000000000000000000000000600582019360ff1994848682541617905551985196518551978c89019a8b528689015260f81b1660608701526041865261051e86610ba6565b898d8551928391826105348d8c51928391610bc2565b830191018152030190209182541617905585895260028752808920549360001985019485116105c657927fb15a6acbb25c9342656cd513fa6728cab579c0669be5f9f01236abf9c38298f4979694928260c097956105b19451998a98895288015286015260a060608601525180938160a087015286860190610bc2565b6080830152601f01601f19168101030190a280f35b60248a60118d634e487b7160e01b835252fd5b8c84517faa3ea2ac000000000000000000000000000000000000000000000000000000008152fd5b61060c91508c610be5565b8e610476565b8d8551638baa579f60e01b8152fd5b8780fd5b8580fd5b503461015e5760a036600319011261015e57813591606036602319011261087257815161065581610b8a565b60243560ff8116810361062557815260209160443583830152606435848301526084356001600160a01b0381169283820361062157868852600185528588208489528552858820936106a78389610be5565b1561084a576106de8389600052600160205260406000206001600160a01b0380921660005260205260016040600020015416151590565b156107ee5786516001600160a01b03841687820190815260208082018b90528282039081018352605f01601f191682019167ffffffffffffffff8311818410176107db57908291610789969594938b52519020918b5260028852888b2054888201927f190000000000000000000000000000000000000000000000000000000000000084528c6021840152602283015260428201526042815261078081610ba6565b51902090610d8f565b156107cd57509060057f80d4746828447d65eceb938c7f9d85fbeb232fe7819d5209ed452b3940f8904b93920160ff1981541690558151903382524290820152a280f35b8351638baa579f60e01b8152fd5b60248c604189634e487b7160e01b835252fd5b606484878951917f08c379a0000000000000000000000000000000000000000000000000000000008352820152601860248201527f43726564656e7469616c20646f65736e277420657869737400000000000000006044820152fd5b8387517fcaa03ea5000000000000000000000000000000000000000000000000000000008152fd5b8380fd5b508290346101ba5760a03660031901126101ba57610892610b42565b61089a610b27565b9180519160208301936001600160a01b03809216855216818301526044356060830152606435608083015260843560a083015260a0825260c082019382851067ffffffffffffffff8611176108f85750602094508390525190208152f35b80604187634e487b7160e01b6024945252fd5b508290346101ba57806003193601126101ba57610926610b27565b90336001600160a01b03831603610943575061019b919235610d19565b8390517f6697b232000000000000000000000000000000000000000000000000000000008152fd5b503461015e578060031936011261015e5761019b913561098e6001610185610b27565b610c9a565b50903461015e578160031936011261015e578160a0936109b1610b27565b9281608084516109c081610b58565b8281528260208201528286820152826060820152015235815260016020528181206001600160a01b038094168252602052208181541692826001830154169260028301549060ff60056003860154950154169460808451610a2081610b58565b888152602081019283528581019485526060810196875201951515865283519687525116602086015251908401525160608301525115156080820152f35b50903461015e57602036600319011261015e57816020936001923581528085522001549051908152f35b8490843461015e57602036600319011261015e57357fffffffff00000000000000000000000000000000000000000000000000000000811680910361015e57602092507f7965db0b000000000000000000000000000000000000000000000000000000008114908115610afd575b5015158152f35b7f01ffc9a70000000000000000000000000000000000000000000000000000000091501483610af6565b602435906001600160a01b0382168203610b3d57565b600080fd5b600435906001600160a01b0382168203610b3d57565b60a0810190811067ffffffffffffffff821117610b7457604052565b634e487b7160e01b600052604160045260246000fd5b6060810190811067ffffffffffffffff821117610b7457604052565b6080810190811067ffffffffffffffff821117610b7457604052565b60005b838110610bd55750506000910152565b8181015183820152602001610bc5565b60005260016020526001600160a01b0360406000209116600052602052604060002060028101544210159081610c2b575b81610c1f575090565b60ff9150600501541690565b9050426003820154101590610c16565b80600052600060205260406000203360005260205260ff6040600020541615610c615750565b6040517fe2517d3f0000000000000000000000000000000000000000000000000000000081523360048201526024810191909152604490fd5b90600091808352826020526001600160a01b036040842092169182845260205260ff60408420541615600014610d1457808352826020526040832082845260205260408320600160ff198254161790557f2f8788117e7eff1d82e926ec794901d17c78024a50270940304540a733656f0d339380a4600190565b505090565b90600091808352826020526001600160a01b036040842092169182845260205260ff604084205416600014610d145780835282602052604083208284526020526040832060ff1981541690557ff6391f5c32d9c69d2a47ea670b442974b53935d1edc7fd64eb21e047a839171b339380a4600190565b8051602080830151604093840151845195865260ff9093168583015292840192909252606083015260008080529291839060809060015afa15610e12576001600160a01b03908183511692838152600260205260408120908154906000198214610dfe57506001019055161490565b80634e487b7160e01b602492526011600452fd5b50604051903d90823e3d90fdfea264697066735822122064be47e4e24858b634b00d001f53472267bfc4ba86c0b4100b24c218972f153864736f6c63430008180033",
  "linkReferences": {},
  "deployedLinkReferences": {}
}