{
  "_format": "hh-sol-artifact-1",
  "contractName": "DIDRegistry",
  "sourceName": "contracts/DIDRegistry.sol",
  "abi": [
    {
      "anonymous": false,
      "inputs": [
        {
          "indexed": true,
          "internalType": "address",
          "name": "identity",
          "type": "address"
        },
        {
          "indexed": false,
          "internalType": "bytes32",
          "name": "name",
          "type": "bytes32"
        },
        {
          "indexed": false,
          "internalType": "bytes",
          "name": "value",
          "type": "bytes"
        },
        {
          "indexed": false,
          "internalType": "uint256",
          "name": "validTo",
          "type": "uint256"
        },
        {
          "indexed": false,
          "internalType": "uint256",
          "name": "previousChange",
          "type": "uint256"
        }
      ],
      "name": "DIDAttributeChanged",
      "type": "event"
    },
    {
      "anonymous": false,
      "inputs": [
        {
          "indexed": true,
          "internalType": "address",
          "name": "identity",
          "type": "address"
        },
        {
          "indexed": false,
          "internalType": "address",
          "name": "owner",
          "type": "address"
        },
        {
          "indexed": false,
          "internalType": "uint256",
          "name": "previousChange",
          "type": "uint256"
        }
      ],
      "name": "DIDOwnerChanged",
      "type": "event"
    },
    {
      "inputs": [
        {
          "internalType": "address",
          "name": "identity",
          "type": "address"
        },
        {
          "internalType": "address",
          "name": "newOwner",
          "type": "address"
        }
      ],
      "name": "changeOwner",
      "outputs": [],
      "stateMutability": "nonpayable",
      "type": "function"
    },
    {
      "inputs": [
        {
          "internalType": "address",
          "name": "identity",
          "type": "address"
        },
        {
          "internalType": "uint8",
          "name": "sigV",
          "type": "uint8"
        },
        {
          "internalType": "bytes32",
          "name": "sigR",
          "type": "bytes32"
        },
        {
          "internalType": "bytes32",
          "name": "sigS",
          "type": "bytes32"
        },
        {
          "internalType": "address",
          "name": "newOwner",
          "type": "address"
        }
      ],
      "name": "changeOwnerSigned",
      "outputs": [],
      "stateMutability": "nonpayable",
      "type": "function"
    },
    {
      "inputs": [
        {
          "internalType": "address",
          "name": "",
          "type": "address"
        }
      ],
      "name": "changed",
      "outputs": [
        {
          "internalType": "uint256",
          "name": "",
          "type": "uint256"
        }
      ],
      "stateMutability": "view",
      "type": "function"
    },
    {
      "inputs": [
        {
          "internalType": "address",
          "name": "identity",
          "type": "address"
        },
        {
          "internalType": "bytes32",
          "name": "name",
          "type": "bytes32"
        }
      ],
      "name": "getAttribute",
      "outputs": [
        {
          "internalType": "bytes",
          "name": "",
          "type": "bytes"
        }
      ],
      "stateMutability": "view",
      "type": "function"
    },
    {
      "inputs": [
        {
          "internalType": "address",
          "name": "identity",
          "type": "address"
        }
      ],
      "name": "identityOwner",
      "outputs": [
        {
          "internalType": "address",
          "name": "",
          "type": "address"
        }
      ],
      "stateMutability": "view",
      "type": "function"
    },
    {
      "inputs": [
        {
          "internalType": "address",
          "name": "",
          "type": "address"
        }
      ],
      "name": "nonce",
      "outputs": [
        {
          "internalType": "uint256",
          "name": "",
          "type": "uint256"
        }
      ],
      "stateMutability": "view",
      "type": "function"
    },
    {
      "inputs": [
        {
          "internalType": "address",
          "name": "",
          "type": "address"
        }
      ],
      "name": "owners",
      "outputs": [
        {
          "internalType": "address",
          "name": "",
          "type": "address"
        }
      ],
      "stateMutability": "view",
      "type": "function"
    },
    {
      "inputs": [
        {
          "internalType": "address",
          "name": "identity",
          "type": "address"
        },
        {
          "internalType": "bytes32",
          "name": "name",
          "type": "bytes32"
        },
        {
          "internalType": "bytes",
          "name": "value",
          "type": "bytes"
        },
        {
          "internalType": "uint256",
          "name": "validity",
          "type": "uint256"
        }
      ],
      "name": "setAttribute",
      "outputs": [],
      "stateMutability": "nonpayable",
      "type": "function"
    },
    {
      "inputs": [
        {
          "internalType": "address",
          "name": "identity",
          "type": "address"
        },
        {
          "internalType": "uint8",
          "name": "sigV",
          "type": "uint8"
        },
        {
          "internalType": "bytes32",
          "name": "sigR",
          "type": "bytes32"
        },
        {
          "internalType": "bytes32",
          "name": "sigS",
          "type": "bytes32"
        },
        {
          "internalType": "bytes32",
          "name": "name",
          "type": "bytes32"
        },
        {
          "internalType": "bytes",
          "name": "value",
          "type": "bytes"
        },
        {
          "internalType": "uint256",
          "name": "validity",
          "type": "uint256"
        }
      ],
      "name": "setAttributeSigned",
      "outputs": [],
      "stateMutability": "nonpayable",
      "type": "function"
    }
  ],
  "bytecode": "0x6080806040523461001657610931908161001c8239f35b600080fdfe608060408181526004918236101561001657600080fd5b600092833560e01c918263022914a71461067857508163123b5e98146104c0578163163f66911461045c578163240cf1fa146102cb57816370ae92d2146102945781637ad4b0a4146101b0575080638733d4e81461017b578063f00d4b5d146100c15763f96d0f9f1461008857600080fd5b346100bd5760203660031901126100bd57806020926001600160a01b036100ad6106af565b1681526001845220549051908152f35b5080fd5b50346100bd57806003193601126100bd576100da6106af565b6024356001600160a01b039182821680920361017757828161012986956101217f38a5a6e68f30ed1ab45860a4afb34bcb2fc00f22ca462d249b8a8d40cda6f7a3956107b1565b1633146108b0565b16928392838752866020528187208173ffffffffffffffffffffffffffffffffffffffff1982541617905560016020528187205482519182526020820152a282526001602052439082205580f35b8480fd5b50346100bd5760203660031901126100bd576020906001600160a01b036101a86101a36106af565b6107b1565b915191168152f35b905034610290576080366003190112610290576101cb6106af565b9060443567ffffffffffffffff8111610177576101eb9036908301610712565b916001600160a01b039061020282610121836107b1565b60643542019283421161027d57507f18ab6b2ae3d64306c00ce663125f2bd680e441a098de1635bd7ad8b0d44965e49161026191169384938488526001602052868820548751938493602435855260806020860152608085019061078c565b918884015260608301520390a282526001602052439082205580f35b866011602492634e487b7160e01b835252fd5b8280fd5b5050346100bd5760203660031901126100bd57806020926001600160a01b036102bb6106af565b1681526002845220549051908152f35b8383346100bd5760a03660031901126100bd576102e66106af565b6102ee6106ca565b90608435906001600160a01b0390818316918284036104585780610311836107b1565b1687526020946002865286882054875187810191601960f81b83528a60218301523060601b60228301526036820152838516966bffffffffffffffffffffffff1990818760601b1660568401527f6368616e67654f776e6572000000000000000000000000000000000000000000606a84015260601b1660758201526069815260a0810181811067ffffffffffffffff8211176104455794847f38a5a6e68f30ed1ab45860a4afb34bcb2fc00f22ca462d249b8a8d40cda6f7a3956103fa6103f48d978c9b976104039760019f9e9c8b52519020906064359060443590886107d9565b936107b1565b169116146108b0565b8389528886528189208173ffffffffffffffffffffffffffffffffffffffff1982541617905586865281892054825191825286820152a2845252439082205580f35b60248b60418e634e487b7160e01b835252fd5b8680fd5b5050346100bd57806003193601126100bd576104766106af565b50805180926020906020835260605191826020850152815b8381106104ab575050828201840152601f01601f19168101030190f35b6080810151878201870152869450810161048e565b8383346100bd5760e03660031901126100bd576104db6106af565b6104e36106ca565b60843560a43567ffffffffffffffff8111610674576105059036908801610712565b9060c4356001600160a01b03948561051c826107b1565b1688526020956002875280888a20549689519789890190601960f81b82528c60218b01523060601b60228b015260368a0152828516986bffffffffffffffffffffffff198660601b166056820152606a81017f736574417474726962757465000000000000000000000000000000000000000090528760768201528089518c8160968401918d01916105ad92610769565b81018860968201520360968101825260b6016105c990826106da565b5190206064356044356105dc93876107d9565b926105e6906107b1565b169116146105f3906108b0565b420180421161066157839283927f18ab6b2ae3d64306c00ce663125f2bd680e441a098de1635bd7ad8b0d44965e492600197968a52878752888a20546106498a51948594855260808a860152608085019061078c565b918a84015260608301520390a2845252439082205580f35b60248760118a634e487b7160e01b835252fd5b8580fd5b8490843461029057602036600319011261029057916020926001600160a01b0391826106a26106af565b1681528085522054168152f35b600435906001600160a01b03821682036106c557565b600080fd5b6024359060ff821682036106c557565b90601f8019910116810190811067ffffffffffffffff8211176106fc57604052565b634e487b7160e01b600052604160045260246000fd5b81601f820112156106c55780359067ffffffffffffffff82116106fc5760405192610747601f8401601f1916602001856106da565b828452602083830101116106c557816000926020809301838601378301015290565b60005b83811061077c5750506000910152565b818101518382015260200161076c565b906020916107a581518092818552858086019101610769565b601f01601f1916010190565b6001600160a01b03808216600052600060205260406000205416806107d4575090565b905090565b93909260209260ff608095604051948552168484015260408301526060820152600092839182805260015afa156108a4576108208151926001600160a01b039182916107b1565b1690831690810361086057815260026020526040812080549091600019821461084c5750600101905590565b80634e487b7160e01b602492526011600452fd5b606460405162461bcd60e51b815260206004820152600d60248201527f426164207369676e6174757265000000000000000000000000000000000000006044820152fd5b604051903d90823e3d90fd5b156108b757565b606460405162461bcd60e51b815260206004820152600960248201527f4e6f74204f776e657200000000000000000000000000000000000000000000006044820152fdfea26469706673582212204c47d427acdbe20e38f91768a3b8a11e054ce1bac5eb2703b010fa4330243a1d64736f6c63430008180033",
  "linkReferences": {},
  "deployedLinkReferences": {}
}