{
  "_format": "hh-sol-artifact-1",
  "contractName": "Verifier",
  "sourceName": "contracts/Verifier.sol",
  "abi": [
    {
      "inputs": [
        {
          "internalType": "address",
          "name": "_credentialRegistryAddress",
          "type": "address"
        }
      ],
      "stateMutability": "nonpayable",
      "type": "constructor"
    },
    {
      "inputs": [],
      "name": "AccessControlBadConfirmation",
      "type": "error"
    },
    {
      "inputs": [
        {
          "internalType": "address",
          "name": "account",
          "type": "address"
        },
        {
          "internalType": "bytes32",
          "name": "neededRole",
          "type": "bytes32"
        }
      ],
      "name": "AccessControlUnauthorizedAccount",
      "type": "error"
    },
    {
      "anonymous": false,
      "inputs": [
        {
          "indexed": true,
          "internalType": "bytes32",
          "name": "role",
          "type": "bytes32"
        },
        {
          "indexed": true,
          "internalType": "bytes32",
          "name": "previousAdminRole",
          "type": "bytes32"
        },
        {
          "indexed": true,
          "internalType": "bytes32",
          "name": "newAdminRole",
          "type": "bytes32"
        }
      ],
      "name": "RoleAdminChanged",
      "type": "event"
    },
    {
      "anonymous": false,
      "inputs": [
        {
          "indexed": true,
          "internalType": "bytes32",
          "name": "role",
          "type": "bytes32"
        },
        {
          "indexed": true,
          "internalType": "address",
          "name": "account",
          "type": "address"
        },
        {
          "indexed": true,
          "internalType": "address",
          "name": "sender",
          "type": "address"
        }
      ],
      "name": "RoleGranted",
      "type": "event"
    },
    {
      "anonymous": false,
      "inputs": [
        {
          "indexed": true,
          "internalType": "bytes32",
          "name": "role",
          "type": "bytes32"
        },
        {
          "indexed": true,
          "internalType": "address",
          "name": "account",
          "type": "address"
        },
        {
          "indexed": true,
          "internalType": "address",
          "name": "sender",
          "type": "address"
        }
      ],
      "name": "RoleRevoked",
      "type": "event"
    },
    {
      "inputs": [],
      "name": "DEFAULT_ADMIN_ROLE",
      "outputs": [
        {
          "internalType": "bytes32",
          "name": "",
          "type": "bytes32"
        }
      ],
      "stateMutability": "view",
      "type": "function"
    },
    {
      "inputs": [],
      "name": "ISSUER_ROLE",
      "outputs": [
        {
          "internalType": "bytes32",
          "name": "",
          "type": "bytes32"
        }
      ],
      "stateMutability": "view",
      "type": "function"
    },
    {
      "inputs": [],
      "name": "credentialRegistry",
      "outputs": [
        {
          "internalType": "contract CredentialRegistry",
          "name": "",
          "type": "address"
        }
      ],
      "stateMutability": "view",
      "type": "function"
    },
    {
      "inputs": [
        {
          "internalType": "bytes32",
          "name": "role",
          "type": "bytes32"
        }
      ],
      "name": "getRoleAdmin",
      "outputs": [
        {
          "internalType": "bytes32",
          "name": "",
          "type": "bytes32"
        }
      ],
      "stateMutability": "view",
      "type": "function"
    },
    {
      "inputs": [
        {
          "internalType": "bytes32",
          "name": "role",
          "type": "bytes32"
        },
        {
          "internalType": "address",
          "name": "account",
          "type": "address"
        }
      ],
      "name": "grantRole",
      "outputs": [],
      "stateMutability": "nonpayable",
      "type": "function"
    },
    {
      "inputs": [
        {
          "internalType": "bytes32",
          "name": "role",
          "type": "bytes32"
        },
        {
          "internalType": "address",
          "name": "account",
          "type": "address"
        }
      ],
      "name": "hasRole",
      "outputs": [
        {
          "internalType": "bool",
          "name": "",
          "type": "bool"
        }
      ],
      "stateMutability": "view",
      "type": "function"
    },
    {
      "inputs": [
        {
          "internalType": "bytes32",
          "name": "role",
          "type": "bytes32"
        },
        {
          "internalType": "address",
          "name": "callerConfirmation",
          "type": "address"
        }
      ],
      "name": "renounceRole",
      "outputs": [],
      "stateMutability": "nonpayable",
      "type": "function"
    },
    {
      "inputs": [
        {
          "internalType": "bytes32",
          "name": "role",
          "type": "bytes32"
        },
        {
          "internalType": "address",
          "name": "account",
          "type": "address"
        }
      ],
      "name": "revokeRole",
      "outputs": [],
      "stateMutability": "nonpayable",
      "type": "function"
    },
    {
      "inputs": [
        {
          "internalType": "bytes4",
          "name": "interfaceId",
          "type": "bytes4"
        }
      ],
      "name": "supportsInterface",
      "outputs": [
        {
          "internalType": "bool",
          "name": "",
          "type": "bool"
        }
      ],
      "stateMutability": "view",
      "type": "function"
    },
    {
      "inputs": [
        {
          "components": [
            {
              "internalType": "address",
              "name": "issuer",
              "type": "address"
            },
            {
              "internalType": "address",
              "name": "subject",
              "type": "address"
            },
            {
              "internalType": "bytes32",
              "name": "data",
              "type": "bytes32"
            },
            {
              "internalType": "uint256",
              "name": "validFrom",
              "type": "uint256"
            },
            {
              "internalType": "uint256",
              "name": "validTo",
              "type": "uint256"
            }
          ],
          "internalType": "struct IVerifier.VerifiableCredential",
          "name": "_vc",
          "type": "tuple"
        },
        {
          "internalType": "bytes",
          "name": "_signature",
          "type": "bytes"
        },
        {
          "internalType": "uint256",
          "name": "_nonce",
          "type": "uint256"
        }
      ],
      "name": "verifyCredential",
      "outputs": [
        {
          "internalType": "bool",
          "name": "",
          "type": "bool"
        },
        {
          "internalType": "bool",
          "name": "",
          "type": "bool"
        },
        {
          "internalType": "bool",
          "name": "",
          "type": "bool"
        }
      ],
      "stateMutability": "view",
      "type": "function"
    }
  ],
  "bytecode": "0x60803461007e57601f610c6b38819003918201601f19168301916001600160401b038311848410176100835780849260209460405283398101031261007e57516001600160a01b0381169081900361007e5761005a33610099565b50600180546001600160a01b031916919091179055604051610b41908161012a8239f35b600080fd5b634e487b7160e01b600052604160045260246000fd5b6001600160a01b031660008181527fad3228b676f7d3cd4284a5443f17f1962b36e491b30a40b2405849e597ba5fb5602052604081205490919060ff1661012557818052816020526040822081835260205260408220600160ff1982541617905533917f2f8788117e7eff1d82e926ec794901d17c78024a50270940304540a733656f0d8180a4600190565b509056fe6080604052600436101561001257600080fd5b6000803560e01c90816301ffc9a7146100ba57508063248a9ca3146100b55780632f2ff15d146100b057806336568abe146100ab57806382aefa24146100a65780638457a518146100a157806391d148541461009c578063a217fddf14610097578063b948c3d4146100925763d547741f1461008d57600080fd5b610499565b610472565b610456565b6103ff565b61034e565b61024a565b6101e7565b6101a3565b61015e565b3461015b57602036600319011261015b57600435907fffffffff00000000000000000000000000000000000000000000000000000000821680920361015b57507f7965db0b000000000000000000000000000000000000000000000000000000008114908115610131575b50151560805260206080f35b7f01ffc9a70000000000000000000000000000000000000000000000000000000091501481610125565b80fd5b3461018d57602036600319011261018d5760043560005260006020526020600160406000200154604051908152f35b600080fd5b6001600160a01b0381160361018d57565b3461018d57604036600319011261018d576101e56024356004356101c682610192565b8060005260006020526101e06001604060002001546108ed565b61095a565b005b3461018d57604036600319011261018d5760243561020481610192565b336001600160a01b03821603610220576101e5906004356109f8565b60046040517f6697b232000000000000000000000000000000000000000000000000000000008152fd5b3461018d57600036600319011261018d5760206040517f114e74f6ea3bd819998f78687bfcb11b140da08e9b7d222fa9c1f1ba1f2aa1228152f35b7f4e487b7100000000000000000000000000000000000000000000000000000000600052604160045260246000fd5b60a0810190811067ffffffffffffffff8211176102d057604052565b610285565b90601f8019910116810190811067ffffffffffffffff8211176102d057604052565b81601f8201121561018d5780359067ffffffffffffffff82116102d0576040519261032c601f8401601f1916602001856102d5565b8284526020838301011161018d57816000926020809301838601378301015290565b3461018d57366003190160e0811261018d5760a01361018d57604051610373816102b4565b60043561037f81610192565b815260243561038d81610192565b602082015260443560408201526064356060820152608435608082015260a43567ffffffffffffffff811161018d576103fb916103d16103da9236906004016102f7565b60c43591610526565b60408051931515845291151560208401521515908201529081906060820190565b0390f35b3461018d57604036600319011261018d57602060ff61044a60243561042381610192565b600435600052600084526040600020906001600160a01b0316600052602052604060002090565b54166040519015158152f35b3461018d57600036600319011261018d57602060405160008152f35b3461018d57600036600319011261018d5760206001600160a01b0360015416604051908152f35b3461018d57604036600319011261018d576101e56024356004356104bc82610192565b8060005260006020526104d66001604060002001546108ed565b6109f8565b9081602091031261018d575190565b6040513d6000823e3d90fd5b9081602091031261018d575161050b81610192565b90565b9081602091031261018d5751801515810361018d5790565b9192909261054b61053f6001546001600160a01b031690565b6001600160a01b031690565b9261055d81516001600160a01b031690565b93602094610574868401516001600160a01b031690565b6040848101516060860151608087015183517f4f5a9bba0000000000000000000000000000000000000000000000000000000081526001600160a01b039687166004820152949095166024850152604484019190915260648301526084820192909252868160a481865afa8015610834578795610654926000926108b6575b5083517f1900000000000000000000000000000000000000000000000000000000000000888201908152600060018201526002810193909352602283019190915261064b81604284015b03601f1981018352826102d5565b51902097610a8e565b83517f9052944e000000000000000000000000000000000000000000000000000000008152600481018b905260ff919091166024820152604481019290925260648201529384608481855afa9283156108345761070e94600094610887575b50866106c682516001600160a01b031690565b83517f957839d9000000000000000000000000000000000000000000000000000000008152600481018b90526001600160a01b03909116602482015295869081906044820190565b0381865afa94851561083457610772988891600097610868575b50825184517f84fb67d200000000000000000000000000000000000000000000000000000000815260048101929092526001600160a01b0316602482015298899081906044820190565b0381865afa97881561083457600098610839575b50916107eb939161079f8894516001600160a01b031690565b90517f87cf356e0000000000000000000000000000000000000000000000000000000081526001600160a01b039182166004820152921660248301529092839190829081906044820190565b03915afa93841561083457600094610805575b5050929190565b610825929450803d1061082d575b61081d81836102d5565b81019061050e565b9138806107fe565b503d610813565b6104ea565b87939198509161079f61085c6107eb9694863d881161082d5761081d81836102d5565b99929450509193610786565b610880919750823d841161082d5761081d81836102d5565b9538610728565b6108a8919450873d89116108af575b6108a081836102d5565b8101906104f6565b92386106b3565b503d610896565b61063d9192506108de61064b91893d8b116108e6575b6108d681836102d5565b8101906104db565b9291506105f3565b503d6108cc565b80600052600060205260ff610919336040600020906001600160a01b0316600052602052604060002090565b5416156109235750565b604490604051907fe2517d3f0000000000000000000000000000000000000000000000000000000082523360048301526024820152fd5b6000908082528160205260ff6109868460408520906001600160a01b0316600052602052604060002090565b54166109f257808252816020526109b38360408420906001600160a01b0316600052602052604060002090565b600160ff198254161790557f2f8788117e7eff1d82e926ec794901d17c78024a50270940304540a733656f0d6001600160a01b033394169280a4600190565b50905090565b6000908082528160205260ff610a248460408520906001600160a01b0316600052602052604060002090565b5416156109f25780825281602052610a528360408420906001600160a01b0316600052602052604060002090565b60ff1981541690557ff6391f5c32d9c69d2a47ea670b442974b53935d1edc7fd64eb21e047a839171b6001600160a01b033394169280a4600190565b6041815103610aad576020810151916060604083015192015160001a90565b60646040517f08c379a000000000000000000000000000000000000000000000000000000000815260206004820152601860248201527f496e76616c6964207369676e6174757265206c656e67746800000000000000006044820152fdfea2646970667358221220b2937b6052ab37514fd81e64d62e1b7e0acd081751f1ae082dbba0ec7b6b087664736f6c63430008180033",
  "linkReferences": {},
  "deployedLinkReferences": {}
}