{
  "_format": "hh-sol-artifact-1",
  "contractName": "Verifier",
  "sourceName": "contracts/Verifier.sol",
  "abi": [
    {
      "inputs": [
        {
          "internalType": "string",
          "name": "name",
          "type": "string"
        },
        {
          "internalType": "string",
          "name": "version",
          "type": "string"
        },
        {
          "internalType": "uint256",
          "name": "chainId",
          "type": "uint256"
        },
        {
          "internalType": "address",
          "name": "credentialRegistryAddress",
          "type": "address"
        }
      ],
      "stateMutability": "nonpayable",
      "type": "constructor"
    },
    {
      "inputs": [],
      "name": "AccessControlBadConfirmation",
      "type": "error"
    },
    {
      "inputs": [
        {
          "internalType": "address",
          "name": "account",
          "type": "address"
        },
        {
          "internalType": "bytes32",
          "name": "neededRole",
          "type": "bytes32"
        }
      ],
      "name": "AccessControlUnauthorizedAccount",
      "type": "error"
    },
    {
      "anonymous": false,
      "inputs": [
        {
          "indexed": true,
          "internalType": "bytes32",
          "name": "role",
          "type": "bytes32"
        },
        {
          "indexed": true,
          "internalType": "bytes32",
          "name": "previousAdminRole",
          "type": "bytes32"
        },
        {
          "indexed": true,
          "internalType": "bytes32",
          "name": "newAdminRole",
          "type": "bytes32"
        }
      ],
      "name": "RoleAdminChanged",
      "type": "event"
    },
    {
      "anonymous": false,
      "inputs": [
        {
          "indexed": true,
          "internalType": "bytes32",
          "name": "role",
          "type": "bytes32"
        },
        {
          "indexed": true,
          "internalType": "address",
          "name": "account",
          "type": "address"
        },
        {
          "indexed": true,
          "internalType": "address",
          "name": "sender",
          "type": "address"
        }
      ],
      "name": "RoleGranted",
      "type": "event"
    },
    {
      "anonymous": false,
      "inputs": [
        {
          "indexed": true,
          "internalType": "bytes32",
          "name": "role",
          "type": "bytes32"
        },
        {
          "indexed": true,
          "internalType": "address",
          "name": "account",
          "type": "address"
        },
        {
          "indexed": true,
          "internalType": "address",
          "name": "sender",
          "type": "address"
        }
      ],
      "name": "RoleRevoked",
      "type": "event"
    },
    {
      "inputs": [],
      "name": "DEFAULT_ADMIN_ROLE",
      "outputs": [
        {
          "internalType": "bytes32",
          "name": "",
          "type": "bytes32"
        }
      ],
      "stateMutability": "view",
      "type": "function"
    },
    {
      "inputs": [],
      "name": "ISSUER_ROLE",
      "outputs": [
        {
          "internalType": "bytes32",
          "name": "",
          "type": "bytes32"
        }
      ],
      "stateMutability": "view",
      "type": "function"
    },
    {
      "inputs": [],
      "name": "credentialRegistry",
      "outputs": [
        {
          "internalType": "contract ICredentialRegistry",
          "name": "",
          "type": "address"
        }
      ],
      "stateMutability": "view",
      "type": "function"
    },
    {
      "inputs": [
        {
          "internalType": "bytes32",
          "name": "_credentialHash",
          "type": "bytes32"
        },
        {
          "internalType": "address",
          "name": "_issuer",
          "type": "address"
        }
      ],
      "name": "exist",
      "outputs": [
        {
          "internalType": "bool",
          "name": "",
          "type": "bool"
        }
      ],
      "stateMutability": "view",
      "type": "function"
    },
    {
      "inputs": [
        {
          "internalType": "bytes32",
          "name": "role",
          "type": "bytes32"
        }
      ],
      "name": "getRoleAdmin",
      "outputs": [
        {
          "internalType": "bytes32",
          "name": "",
          "type": "bytes32"
        }
      ],
      "stateMutability": "view",
      "type": "function"
    },
    {
      "inputs": [
        {
          "internalType": "bytes32",
          "name": "role",
          "type": "bytes32"
        },
        {
          "internalType": "address",
          "name": "account",
          "type": "address"
        }
      ],
      "name": "grantRole",
      "outputs": [],
      "stateMutability": "nonpayable",
      "type": "function"
    },
    {
      "inputs": [
        {
          "internalType": "bytes32",
          "name": "role",
          "type": "bytes32"
        },
        {
          "internalType": "address",
          "name": "account",
          "type": "address"
        }
      ],
      "name": "hasRole",
      "outputs": [
        {
          "internalType": "bool",
          "name": "",
          "type": "bool"
        }
      ],
      "stateMutability": "view",
      "type": "function"
    },
    {
      "inputs": [
        {
          "internalType": "bytes32",
          "name": "role",
          "type": "bytes32"
        },
        {
          "internalType": "address",
          "name": "callerConfirmation",
          "type": "address"
        }
      ],
      "name": "renounceRole",
      "outputs": [],
      "stateMutability": "nonpayable",
      "type": "function"
    },
    {
      "inputs": [
        {
          "internalType": "bytes32",
          "name": "role",
          "type": "bytes32"
        },
        {
          "internalType": "address",
          "name": "account",
          "type": "address"
        }
      ],
      "name": "revokeRole",
      "outputs": [],
      "stateMutability": "nonpayable",
      "type": "function"
    },
    {
      "inputs": [
        {
          "internalType": "bytes4",
          "name": "interfaceId",
          "type": "bytes4"
        }
      ],
      "name": "supportsInterface",
      "outputs": [
        {
          "internalType": "bool",
          "name": "",
          "type": "bool"
        }
      ],
      "stateMutability": "view",
      "type": "function"
    },
    {
      "inputs": [
        {
          "internalType": "bytes32",
          "name": "_credentialHash",
          "type": "bytes32"
        },
        {
          "internalType": "address",
          "name": "_issuer",
          "type": "address"
        }
      ],
      "name": "validate",
      "outputs": [
        {
          "internalType": "bool",
          "name": "",
          "type": "bool"
        }
      ],
      "stateMutability": "view",
      "type": "function"
    },
    {
      "inputs": [
        {
          "components": [
            {
              "internalType": "address",
              "name": "issuer",
              "type": "address"
            },
            {
              "internalType": "address",
              "name": "subject",
              "type": "address"
            },
            {
              "internalType": "bytes32",
              "name": "credentialSubject",
              "type": "bytes32"
            },
            {
              "internalType": "uint256",
              "name": "validFrom",
              "type": "uint256"
            },
            {
              "internalType": "uint256",
              "name": "validTo",
              "type": "uint256"
            }
          ],
          "internalType": "struct IVerifier.VerifiableCredential",
          "name": "_vc",
          "type": "tuple"
        },
        {
          "internalType": "bytes",
          "name": "_signature",
          "type": "bytes"
        }
      ],
      "name": "verifyCredential",
      "outputs": [
        {
          "internalType": "bool",
          "name": "",
          "type": "bool"
        }
      ],
      "stateMutability": "view",
      "type": "function"
    }
  ],
  "bytecode": "0x608060409080825234620001d45762000f0f8038038091620000228285620001d9565b83398101608082820312620001d45781516001600160401b039390848111620001d4578262000053918501620001fd565b91602084015190858211620001d4576200006f918501620001fd565b906060818501519401519360018060a01b0392838616809603620001d457620000983362000273565b508251946080860186811089821117620001be578452855260208501908152828501918252606085019030825283519160208301937f454950373132446f6d61696e28737472696e67206e616d652c737472696e672085527f76657273696f6e2c75696e7420636861696e49642c6164647265737320766572868501526e696679696e67436f6e74726163742960881b6060850152604f845260808401968488108b891117620001be57610140958888528551902098516020815191012093516020815191012091519251169260a0850198895260c085015260e084015261010083015261012082015260a08452019482861090861117620001be57849052519020600255600180546001600160a01b031916919091179055610c0a9081620003058239f35b634e487b7160e01b600052604160045260246000fd5b600080fd5b601f909101601f19168101906001600160401b03821190821017620001be57604052565b919080601f84011215620001d45782516001600160401b038111620001be57602090604051926200023883601f19601f8501160185620001d9565b818452828287010111620001d45760005b8181106200025f57508260009394955001015290565b858101830151848201840152820162000249565b6001600160a01b031660008181527fad3228b676f7d3cd4284a5443f17f1962b36e491b30a40b2405849e597ba5fb5602052604081205490919060ff166200030057818052816020526040822081835260205260408220600160ff1982541617905533917f2f8788117e7eff1d82e926ec794901d17c78024a50270940304540a733656f0d8180a4600190565b509056fe6080604052600436101561001257600080fd5b60003560e01c806301ffc9a7146100d7578063248a9ca3146100d25780632f2ff15d146100cd57806336568abe146100c857806382aefa24146100c357806384fb67d2146100be57806391d14854146100b9578063957839d9146100b4578063a217fddf146100af578063b948c3d4146100aa578063c501e6f9146100a55763d547741f146100a057600080fd5b6105f4565b610559565b610469565b61044d565b6103d2565b61037b565b61029f565b610264565b610201565b6101bd565b61017d565b34610178576020366003190112610178576004357fffffffff00000000000000000000000000000000000000000000000000000000811680910361017857807f7965db0b000000000000000000000000000000000000000000000000000000006020921490811561014e575b506040519015158152f35b7f01ffc9a70000000000000000000000000000000000000000000000000000000091501438610143565b600080fd5b346101785760203660031901126101785760043560005260006020526020600160406000200154604051908152f35b6001600160a01b0381160361017857565b34610178576040366003190112610178576101ff6024356004356101e0826101ac565b8060005260006020526101fa6001604060002001546109b6565b610a23565b005b346101785760403660031901126101785760243561021e816101ac565b336001600160a01b0382160361023a576101ff90600435610ac1565b60046040517f6697b232000000000000000000000000000000000000000000000000000000008152fd5b346101785760003660031901126101785760206040517f114e74f6ea3bd819998f78687bfcb11b140da08e9b7d222fa9c1f1ba1f2aa1228152f35b346101785760403660031901126101785761031a60206024356102c1816101ac565b6001600160a01b036001541660405180809581947f84fb67d2000000000000000000000000000000000000000000000000000000008352600435600484019092916001600160a01b036020916040840195845216910152565b03915afa80156103765761034391600091610347575b5060405190151581529081906020820190565b0390f35b610369915060203d60201161036f575b61036181836104e0565b810190610636565b38610330565b503d610357565b61064e565b3461017857604036600319011261017857602060ff6103c660243561039f816101ac565b600435600052600084526040600020906001600160a01b0316600052602052604060002090565b54166040519015158152f35b346101785760403660031901126101785761031a60206024356103f4816101ac565b6001600160a01b036001541660405180809581947f957839d9000000000000000000000000000000000000000000000000000000008352600435600484019092916001600160a01b036020916040840195845216910152565b3461017857600036600319011261017857602060405160008152f35b346101785760003660031901126101785760206001600160a01b0360015416604051908152f35b7f4e487b7100000000000000000000000000000000000000000000000000000000600052604160045260246000fd5b60a0810190811067ffffffffffffffff8211176104db57604052565b610490565b90601f8019910116810190811067ffffffffffffffff8211176104db57604052565b81601f820112156101785780359067ffffffffffffffff82116104db5760405192610537601f8401601f1916602001856104e0565b8284526020838301011161017857816000926020809301838601378301015290565b3461017857366003190160c081126101785760a0136101785760405161057e816104bf565b60043561058a816101ac565b8152602435610598816101ac565b602082015260443560408201526064356060820152608435608082015260a43567ffffffffffffffff811161017857610343916105dc6105e2923690600401610502565b90610731565b60405190151581529081906020820190565b34610178576040366003190112610178576101ff602435600435610617826101ac565b8060005260006020526106316001604060002001546109b6565b610ac1565b90816020910312610178575180151581036101785790565b6040513d6000823e3d90fd5b60405160208101907f56657269666961626c6543726564656e7469616c28616464726573732069737382527f7565722c61646472657373207375626a6563742c62797465733332206372656460408201527f656e7469616c5375626a6563742c75696e742076616c696446726f6d2c75696e60608201527f742076616c6964546f29000000000000000000000000000000000000000000006080820152606a8152610704816104bf565b51902090565b90816020910312610178575190565b90816020910312610178575161072e816101ac565b90565b6002546107556107496001546001600160a01b031690565b6001600160a01b031690565b61075d61065a565b83516001600160a01b03169460208096610780828801516001600160a01b031690565b60408881015160608a015160808b015192517f58325f3c00000000000000000000000000000000000000000000000000000000815260048101989098526001600160a01b0394851660248901529290931660448701526064860192909252608485015260a48401528260c481865afa918215610376576108b69461085061085e899561086794600091610989575b50604051928391888301958690916042927f19010000000000000000000000000000000000000000000000000000000000008352600283015260228201520190565b03601f1981018352826104e0565b51902091610b57565b6040517f9052944e000000000000000000000000000000000000000000000000000000008152600481019490945260ff1660248401526044830191909152606482015292839081906084820190565b0381845afa90811561037657610929938593600093610956575b50516001600160a01b03165b6040517f87cf356e0000000000000000000000000000000000000000000000000000000081526001600160a01b039182166004820152921660248301529092839190829081906044820190565b03915afa9182156103765760009261094057505090565b61072e9250803d1061036f5761036181836104e0565b6108dc91935061097b90853d8711610982575b61097381836104e0565b810190610719565b92906108d0565b503d610969565b6109a99150873d89116109af575b6109a181836104e0565b81019061070a565b3861080e565b503d610997565b80600052600060205260ff6109e2336040600020906001600160a01b0316600052602052604060002090565b5416156109ec5750565b604490604051907fe2517d3f0000000000000000000000000000000000000000000000000000000082523360048301526024820152fd5b6000908082528160205260ff610a4f8460408520906001600160a01b0316600052602052604060002090565b5416610abb5780825281602052610a7c8360408420906001600160a01b0316600052602052604060002090565b600160ff198254161790557f2f8788117e7eff1d82e926ec794901d17c78024a50270940304540a733656f0d6001600160a01b033394169280a4600190565b50905090565b6000908082528160205260ff610aed8460408520906001600160a01b0316600052602052604060002090565b541615610abb5780825281602052610b1b8360408420906001600160a01b0316600052602052604060002090565b60ff1981541690557ff6391f5c32d9c69d2a47ea670b442974b53935d1edc7fd64eb21e047a839171b6001600160a01b033394169280a4600190565b6041815103610b76576020810151916060604083015192015160001a90565b60646040517f08c379a000000000000000000000000000000000000000000000000000000000815260206004820152601860248201527f496e76616c6964207369676e6174757265206c656e67746800000000000000006044820152fdfea2646970667358221220f8e615827636a2c7f5ca7b468627cfbaeacdb56a07ff17fe9d1f77c991a358d564736f6c63430008180033",
  "linkReferences": {},
  "deployedLinkReferences": {}
}