{
  "_format": "hh-sol-artifact-1",
  "contractName": "Verifier",
  "sourceName": "contracts/Verifier.sol",
  "abi": [
    {
      "inputs": [
        {
          "internalType": "string",
          "name": "name",
          "type": "string"
        },
        {
          "internalType": "string",
          "name": "version",
          "type": "string"
        },
        {
          "internalType": "uint256",
          "name": "chainId",
          "type": "uint256"
        },
        {
          "internalType": "address",
          "name": "credentialRegistryAddress",
          "type": "address"
        }
      ],
      "stateMutability": "nonpayable",
      "type": "constructor"
    },
    {
      "inputs": [],
      "name": "AccessControlBadConfirmation",
      "type": "error"
    },
    {
      "inputs": [
        {
          "internalType": "address",
          "name": "account",
          "type": "address"
        },
        {
          "internalType": "bytes32",
          "name": "neededRole",
          "type": "bytes32"
        }
      ],
      "name": "AccessControlUnauthorizedAccount",
      "type": "error"
    },
    {
      "anonymous": false,
      "inputs": [
        {
          "indexed": true,
          "internalType": "bytes32",
          "name": "role",
          "type": "bytes32"
        },
        {
          "indexed": true,
          "internalType": "bytes32",
          "name": "previousAdminRole",
          "type": "bytes32"
        },
        {
          "indexed": true,
          "internalType": "bytes32",
          "name": "newAdminRole",
          "type": "bytes32"
        }
      ],
      "name": "RoleAdminChanged",
      "type": "event"
    },
    {
      "anonymous": false,
      "inputs": [
        {
          "indexed": true,
          "internalType": "bytes32",
          "name": "role",
          "type": "bytes32"
        },
        {
          "indexed": true,
          "internalType": "address",
          "name": "account",
          "type": "address"
        },
        {
          "indexed": true,
          "internalType": "address",
          "name": "sender",
          "type": "address"
        }
      ],
      "name": "RoleGranted",
      "type": "event"
    },
    {
      "anonymous": false,
      "inputs": [
        {
          "indexed": true,
          "internalType": "bytes32",
          "name": "role",
          "type": "bytes32"
        },
        {
          "indexed": true,
          "internalType": "address",
          "name": "account",
          "type": "address"
        },
        {
          "indexed": true,
          "internalType": "address",
          "name": "sender",
          "type": "address"
        }
      ],
      "name": "RoleRevoked",
      "type": "event"
    },
    {
      "inputs": [],
      "name": "DEFAULT_ADMIN_ROLE",
      "outputs": [
        {
          "internalType": "bytes32",
          "name": "",
          "type": "bytes32"
        }
      ],
      "stateMutability": "view",
      "type": "function"
    },
    {
      "inputs": [],
      "name": "ISSUER_ROLE",
      "outputs": [
        {
          "internalType": "bytes32",
          "name": "",
          "type": "bytes32"
        }
      ],
      "stateMutability": "view",
      "type": "function"
    },
    {
      "inputs": [],
      "name": "credentialRegistry",
      "outputs": [
        {
          "internalType": "contract ICredentialRegistry",
          "name": "",
          "type": "address"
        }
      ],
      "stateMutability": "view",
      "type": "function"
    },
    {
      "inputs": [
        {
          "internalType": "bytes32",
          "name": "role",
          "type": "bytes32"
        }
      ],
      "name": "getRoleAdmin",
      "outputs": [
        {
          "internalType": "bytes32",
          "name": "",
          "type": "bytes32"
        }
      ],
      "stateMutability": "view",
      "type": "function"
    },
    {
      "inputs": [
        {
          "internalType": "bytes32",
          "name": "role",
          "type": "bytes32"
        },
        {
          "internalType": "address",
          "name": "account",
          "type": "address"
        }
      ],
      "name": "grantRole",
      "outputs": [],
      "stateMutability": "nonpayable",
      "type": "function"
    },
    {
      "inputs": [
        {
          "internalType": "bytes32",
          "name": "role",
          "type": "bytes32"
        },
        {
          "internalType": "address",
          "name": "account",
          "type": "address"
        }
      ],
      "name": "hasRole",
      "outputs": [
        {
          "internalType": "bool",
          "name": "",
          "type": "bool"
        }
      ],
      "stateMutability": "view",
      "type": "function"
    },
    {
      "inputs": [
        {
          "internalType": "bytes32",
          "name": "role",
          "type": "bytes32"
        },
        {
          "internalType": "address",
          "name": "callerConfirmation",
          "type": "address"
        }
      ],
      "name": "renounceRole",
      "outputs": [],
      "stateMutability": "nonpayable",
      "type": "function"
    },
    {
      "inputs": [
        {
          "internalType": "bytes32",
          "name": "role",
          "type": "bytes32"
        },
        {
          "internalType": "address",
          "name": "account",
          "type": "address"
        }
      ],
      "name": "revokeRole",
      "outputs": [],
      "stateMutability": "nonpayable",
      "type": "function"
    },
    {
      "inputs": [
        {
          "internalType": "bytes4",
          "name": "interfaceId",
          "type": "bytes4"
        }
      ],
      "name": "supportsInterface",
      "outputs": [
        {
          "internalType": "bool",
          "name": "",
          "type": "bool"
        }
      ],
      "stateMutability": "view",
      "type": "function"
    },
    {
      "inputs": [
        {
          "components": [
            {
              "internalType": "address",
              "name": "issuer",
              "type": "address"
            },
            {
              "internalType": "address",
              "name": "subject",
              "type": "address"
            },
            {
              "internalType": "bytes32",
              "name": "data",
              "type": "bytes32"
            },
            {
              "internalType": "uint256",
              "name": "validFrom",
              "type": "uint256"
            },
            {
              "internalType": "uint256",
              "name": "validTo",
              "type": "uint256"
            }
          ],
          "internalType": "struct IVerifier.VerifiableCredential",
          "name": "_vc",
          "type": "tuple"
        },
        {
          "internalType": "bytes",
          "name": "_signature",
          "type": "bytes"
        },
        {
          "internalType": "uint256",
          "name": "_nonce",
          "type": "uint256"
        }
      ],
      "name": "verifyCredential",
      "outputs": [
        {
          "internalType": "bool",
          "name": "",
          "type": "bool"
        },
        {
          "internalType": "bool",
          "name": "",
          "type": "bool"
        },
        {
          "internalType": "bool",
          "name": "",
          "type": "bool"
        }
      ],
      "stateMutability": "view",
      "type": "function"
    }
  ],
  "bytecode": "0x608060409080825234620002d057620010a38038038091620000228285620002d5565b83398101608082820312620002d05781516001600160401b039190828111620002d05781620000539185016200031e565b916020918285015190828211620002d057620000719186016200031e565b916060868601519501519460018060a01b03808716809703620002d057620000993362000379565b508751956080870187811086821117620002ba5789528652828601948552878601918252606086019030825288519489860186811082821117620002ba578a5260118652848601957008a92a06e626488dedac2d2dc40d0c2e6d607b1b87528a51918683019163104c13eb60e21b8352876024850152519788604485015288606485016200012792620002f9565b82601f19601f819a0116810103604481018452606401620001499084620002d5565b6000808094516a636f6e736f6c652e6c6f6794855afa506200016a6200040a565b8c8b51898151910120918b518a815191012090895192888a511690519384938d850196620001bf948893909594919260809360a0860197865260208601526040850152606084015260018060a01b0316910152565b038a81018252620001d19082620002d5565b519020908c5190888201926327b7cf8560e01b8452602483015260248252606082019082821090821117620002a657928492620002719795928f956200027e9c9b9a98965251915afa50620002256200040a565b98518051908601209751805190860120925191518b51958601998a5260208a0198909852604089019290925260608801529094166001600160a01b0316608086015292839060a0860190565b03908101835282620002d5565b519020600255600180546001600160a01b03191691909117905551610c0890816200049b8239f35b634e487b7160e01b85526041600452602485fd5b634e487b7160e01b600052604160045260246000fd5b600080fd5b601f909101601f19168101906001600160401b03821190821017620002ba57604052565b60005b8381106200030d5750506000910152565b8181015183820152602001620002fc565b81601f82011215620002d05780516001600160401b038111620002ba576040519262000355601f8301601f191660200185620002d5565b81845260208284010111620002d057620003769160208085019101620002f9565b90565b6001600160a01b031660008181527fad3228b676f7d3cd4284a5443f17f1962b36e491b30a40b2405849e597ba5fb5602052604081205490919060ff166200040657818052816020526040822081835260205260408220600160ff1982541617905533917f2f8788117e7eff1d82e926ec794901d17c78024a50270940304540a733656f0d8180a4600190565b5090565b60405160808101906001600160401b03821181831017620002ba5760529160405281815271766572696679696e67436f6e74726163742960701b606060208301927f454950373132446f6d61696e28737472696e67206e616d652c737472696e672084527f76657273696f6e2c75696e7432353620636861696e49642c616464726573732060408201520152209056fe6080604052600436101561001257600080fd5b6000803560e01c90816301ffc9a7146100ba57508063248a9ca3146100b55780632f2ff15d146100b057806336568abe146100ab57806382aefa24146100a65780638457a518146100a157806391d148541461009c578063a217fddf14610097578063b948c3d4146100925763d547741f1461008d57600080fd5b610499565b610472565b610456565b6103ff565b61034e565b61024a565b6101e7565b6101a3565b61015e565b3461015b57602036600319011261015b57600435907fffffffff00000000000000000000000000000000000000000000000000000000821680920361015b57507f7965db0b000000000000000000000000000000000000000000000000000000008114908115610131575b50151560805260206080f35b7f01ffc9a70000000000000000000000000000000000000000000000000000000091501481610125565b80fd5b3461018d57602036600319011261018d5760043560005260006020526020600160406000200154604051908152f35b600080fd5b6001600160a01b0381160361018d57565b3461018d57604036600319011261018d576101e56024356004356101c682610192565b8060005260006020526101e06001604060002001546109b4565b610a21565b005b3461018d57604036600319011261018d5760243561020481610192565b336001600160a01b03821603610220576101e590600435610abf565b60046040517f6697b232000000000000000000000000000000000000000000000000000000008152fd5b3461018d57600036600319011261018d5760206040517f114e74f6ea3bd819998f78687bfcb11b140da08e9b7d222fa9c1f1ba1f2aa1228152f35b7f4e487b7100000000000000000000000000000000000000000000000000000000600052604160045260246000fd5b60a0810190811067ffffffffffffffff8211176102d057604052565b610285565b90601f8019910116810190811067ffffffffffffffff8211176102d057604052565b81601f8201121561018d5780359067ffffffffffffffff82116102d0576040519261032c601f8401601f1916602001856102d5565b8284526020838301011161018d57816000926020809301838601378301015290565b3461018d57366003190160e0811261018d5760a01361018d57604051610373816102b4565b60043561037f81610192565b815260243561038d81610192565b602082015260443560408201526064356060820152608435608082015260a43567ffffffffffffffff811161018d576103fb916103d16103da9236906004016102f7565b60c435916105d4565b60408051931515845291151560208401521515908201529081906060820190565b0390f35b3461018d57604036600319011261018d57602060ff61044a60243561042381610192565b600435600052600084526040600020906001600160a01b0316600052602052604060002090565b54166040519015158152f35b3461018d57600036600319011261018d57602060405160008152f35b3461018d57600036600319011261018d5760206001600160a01b0360015416604051908152f35b3461018d57604036600319011261018d576101e56024356004356104bc82610192565b8060005260006020526104d66001604060002001546109b4565b610abf565b60706040516104e9816102b4565b8181527f75696e743235362076616c6964546f2900000000000000000000000000000000608060208301927f56657269666961626c6543726564656e7469616c28616464726573732069737384527f7565722c61646472657373207375626a6563742c62797465733332206372656460408201527f656e7469616c5375626a6563742c75696e743235362076616c696446726f6d2c606082015201522090565b9081602091031261018d575190565b6040513d6000823e3d90fd5b9081602091031261018d57516105b981610192565b90565b9081602091031261018d5751801515810361018d5790565b91929092600254926105fd6105f16001546001600160a01b031690565b6001600160a01b031690565b6106056104db565b82516001600160a01b03169360209687610628818701516001600160a01b031690565b966040946106a18689015160608a015160808b01519189519c8d9687967f58325f3c00000000000000000000000000000000000000000000000000000000885260048801929160a094919796959260c085019885526001600160a01b038092166020860152166040840152606083015260808201520152565b0381875afa9182156109055761071c610725938a98600091610987575b5061070e86519384928b8401968791606293917f19000000000000000000000000000000000000000000000000000000000000008452600060018501526002840152602283015260428201520190565b03601f1981018352826102d5565b51902097610b55565b83517f9052944e000000000000000000000000000000000000000000000000000000008152600481018b905260ff919091166024820152604481019290925260648201529384608481855afa928315610905576107df94600094610958575b508661079782516001600160a01b031690565b83517f957839d9000000000000000000000000000000000000000000000000000000008152600481018b90526001600160a01b03909116602482015295869081906044820190565b0381865afa94851561090557610843988891600097610939575b50825184517f84fb67d200000000000000000000000000000000000000000000000000000000815260048101929092526001600160a01b0316602482015298899081906044820190565b0381865afa9788156109055760009861090a575b50916108bc93916108708894516001600160a01b031690565b90517f87cf356e0000000000000000000000000000000000000000000000000000000081526001600160a01b039182166004820152921660248301529092839190829081906044820190565b03915afa938415610905576000946108d6575b5050929190565b6108f6929450803d106108fe575b6108ee81836102d5565b8101906105bc565b9138806108cf565b503d6108e4565b610598565b87939198509161087061092d6108bc9694863d88116108fe576108ee81836102d5565b99929450509193610857565b610951919750823d84116108fe576108ee81836102d5565b95386107f9565b610979919450873d8911610980575b61097181836102d5565b8101906105a4565b9238610784565b503d610967565b6109a79150893d8b116109ad575b61099f81836102d5565b810190610589565b386106be565b503d610995565b80600052600060205260ff6109e0336040600020906001600160a01b0316600052602052604060002090565b5416156109ea5750565b604490604051907fe2517d3f0000000000000000000000000000000000000000000000000000000082523360048301526024820152fd5b6000908082528160205260ff610a4d8460408520906001600160a01b0316600052602052604060002090565b5416610ab95780825281602052610a7a8360408420906001600160a01b0316600052602052604060002090565b600160ff198254161790557f2f8788117e7eff1d82e926ec794901d17c78024a50270940304540a733656f0d6001600160a01b033394169280a4600190565b50905090565b6000908082528160205260ff610aeb8460408520906001600160a01b0316600052602052604060002090565b541615610ab95780825281602052610b198360408420906001600160a01b0316600052602052604060002090565b60ff1981541690557ff6391f5c32d9c69d2a47ea670b442974b53935d1edc7fd64eb21e047a839171b6001600160a01b033394169280a4600190565b6041815103610b74576020810151916060604083015192015160001a90565b60646040517f08c379a000000000000000000000000000000000000000000000000000000000815260206004820152601860248201527f496e76616c6964207369676e6174757265206c656e67746800000000000000006044820152fdfea2646970667358221220d9f288567a19bd7537c7fd8eaa6fd230d62905a4ce669ab1af1a94629e48560864736f6c63430008180033",
  "linkReferences": {},
  "deployedLinkReferences": {}
}