{
  "_format": "hh-sol-artifact-1",
  "contractName": "Verifier",
  "sourceName": "contracts/Verifier.sol",
  "abi": [
    {
      "inputs": [
        {
          "internalType": "string",
          "name": "name",
          "type": "string"
        },
        {
          "internalType": "string",
          "name": "version",
          "type": "string"
        },
        {
          "internalType": "uint256",
          "name": "chainId",
          "type": "uint256"
        },
        {
          "internalType": "address",
          "name": "credentialRegistryAddress",
          "type": "address"
        },
        {
          "internalType": "address",
          "name": "didRegistryAddress",
          "type": "address"
        }
      ],
      "stateMutability": "nonpayable",
      "type": "constructor"
    },
    {
      "inputs": [],
      "name": "AccessControlBadConfirmation",
      "type": "error"
    },
    {
      "inputs": [
        {
          "internalType": "address",
          "name": "account",
          "type": "address"
        },
        {
          "internalType": "bytes32",
          "name": "neededRole",
          "type": "bytes32"
        }
      ],
      "name": "AccessControlUnauthorizedAccount",
      "type": "error"
    },
    {
      "anonymous": false,
      "inputs": [
        {
          "indexed": true,
          "internalType": "bytes32",
          "name": "role",
          "type": "bytes32"
        },
        {
          "indexed": true,
          "internalType": "bytes32",
          "name": "previousAdminRole",
          "type": "bytes32"
        },
        {
          "indexed": true,
          "internalType": "bytes32",
          "name": "newAdminRole",
          "type": "bytes32"
        }
      ],
      "name": "RoleAdminChanged",
      "type": "event"
    },
    {
      "anonymous": false,
      "inputs": [
        {
          "indexed": true,
          "internalType": "bytes32",
          "name": "role",
          "type": "bytes32"
        },
        {
          "indexed": true,
          "internalType": "address",
          "name": "account",
          "type": "address"
        },
        {
          "indexed": true,
          "internalType": "address",
          "name": "sender",
          "type": "address"
        }
      ],
      "name": "RoleGranted",
      "type": "event"
    },
    {
      "anonymous": false,
      "inputs": [
        {
          "indexed": true,
          "internalType": "bytes32",
          "name": "role",
          "type": "bytes32"
        },
        {
          "indexed": true,
          "internalType": "address",
          "name": "account",
          "type": "address"
        },
        {
          "indexed": true,
          "internalType": "address",
          "name": "sender",
          "type": "address"
        }
      ],
      "name": "RoleRevoked",
      "type": "event"
    },
    {
      "inputs": [],
      "name": "DEFAULT_ADMIN_ROLE",
      "outputs": [
        {
          "internalType": "bytes32",
          "name": "",
          "type": "bytes32"
        }
      ],
      "stateMutability": "view",
      "type": "function"
    },
    {
      "inputs": [],
      "name": "ISSUER_ROLE",
      "outputs": [
        {
          "internalType": "bytes32",
          "name": "",
          "type": "bytes32"
        }
      ],
      "stateMutability": "view",
      "type": "function"
    },
    {
      "inputs": [
        {
          "internalType": "bytes32",
          "name": "_credentialHash",
          "type": "bytes32"
        },
        {
          "internalType": "address",
          "name": "_issuer",
          "type": "address"
        }
      ],
      "name": "exist",
      "outputs": [
        {
          "internalType": "bool",
          "name": "",
          "type": "bool"
        }
      ],
      "stateMutability": "view",
      "type": "function"
    },
    {
      "inputs": [
        {
          "internalType": "bytes32",
          "name": "role",
          "type": "bytes32"
        }
      ],
      "name": "getRoleAdmin",
      "outputs": [
        {
          "internalType": "bytes32",
          "name": "",
          "type": "bytes32"
        }
      ],
      "stateMutability": "view",
      "type": "function"
    },
    {
      "inputs": [
        {
          "internalType": "bytes32",
          "name": "role",
          "type": "bytes32"
        },
        {
          "internalType": "address",
          "name": "account",
          "type": "address"
        }
      ],
      "name": "grantRole",
      "outputs": [],
      "stateMutability": "nonpayable",
      "type": "function"
    },
    {
      "inputs": [
        {
          "internalType": "bytes32",
          "name": "role",
          "type": "bytes32"
        },
        {
          "internalType": "address",
          "name": "account",
          "type": "address"
        }
      ],
      "name": "hasRole",
      "outputs": [
        {
          "internalType": "bool",
          "name": "",
          "type": "bool"
        }
      ],
      "stateMutability": "view",
      "type": "function"
    },
    {
      "inputs": [
        {
          "internalType": "bytes32",
          "name": "role",
          "type": "bytes32"
        },
        {
          "internalType": "address",
          "name": "callerConfirmation",
          "type": "address"
        }
      ],
      "name": "renounceRole",
      "outputs": [],
      "stateMutability": "nonpayable",
      "type": "function"
    },
    {
      "inputs": [
        {
          "internalType": "bytes32",
          "name": "role",
          "type": "bytes32"
        },
        {
          "internalType": "address",
          "name": "account",
          "type": "address"
        }
      ],
      "name": "revokeRole",
      "outputs": [],
      "stateMutability": "nonpayable",
      "type": "function"
    },
    {
      "inputs": [
        {
          "internalType": "bytes4",
          "name": "interfaceId",
          "type": "bytes4"
        }
      ],
      "name": "supportsInterface",
      "outputs": [
        {
          "internalType": "bool",
          "name": "",
          "type": "bool"
        }
      ],
      "stateMutability": "view",
      "type": "function"
    },
    {
      "inputs": [
        {
          "internalType": "bytes32",
          "name": "_credentialHash",
          "type": "bytes32"
        },
        {
          "internalType": "address",
          "name": "_issuer",
          "type": "address"
        }
      ],
      "name": "validate",
      "outputs": [
        {
          "internalType": "bool",
          "name": "",
          "type": "bool"
        }
      ],
      "stateMutability": "view",
      "type": "function"
    },
    {
      "inputs": [
        {
          "components": [
            {
              "internalType": "address",
              "name": "issuer",
              "type": "address"
            },
            {
              "internalType": "address",
              "name": "subject",
              "type": "address"
            },
            {
              "internalType": "bytes32",
              "name": "credentialSubject",
              "type": "bytes32"
            },
            {
              "internalType": "uint256",
              "name": "validFrom",
              "type": "uint256"
            },
            {
              "internalType": "uint256",
              "name": "validTo",
              "type": "uint256"
            }
          ],
          "internalType": "struct IVerifier.VerifiableCredential",
          "name": "_vc",
          "type": "tuple"
        },
        {
          "internalType": "bytes",
          "name": "_issuerSignature",
          "type": "bytes"
        },
        {
          "internalType": "bytes",
          "name": "_holderSignature",
          "type": "bytes"
        }
      ],
      "name": "verifyCredential",
      "outputs": [
        {
          "internalType": "bool",
          "name": "",
          "type": "bool"
        },
        {
          "internalType": "bool",
          "name": "",
          "type": "bool"
        }
      ],
      "stateMutability": "view",
      "type": "function"
    }
  ],
  "bytecode": "0x6080604081815234620001e95762000f6c8038038091620000218286620001ee565b8439820160a083820312620001e95782516001600160401b039390848111620001e957826200005291830162000212565b91602082015190858211620001e9576200006e91830162000212565b91838201516200008f6080620000876060860162000288565b940162000288565b946200009b336200029d565b508051926080840184811089821117620001d35782528352602083019485528083019182526060830194308652815160208101917f454950373132446f6d61696e28737472696e67206e616d652c737472696e672083527f76657273696f6e2c75696e7420636861696e49642c6164647265737320766572848301526e696679696e67436f6e74726163742960881b6060830152604f825260808201948286108b871117620001d357610140938686528351902096516020815191012091516020815191012090519060018060a01b03809a51169260a0850198895260c085015260e084015261010083015261012082015260a08452019682881090881117620001d3578690525190206001558160018060a01b0319931683600354161760035516906002541617600255610c3d90816200032f8239f35b634e487b7160e01b600052604160045260246000fd5b600080fd5b601f909101601f19168101906001600160401b03821190821017620001d357604052565b919080601f84011215620001e95782516001600160401b038111620001d357602090604051926200024d83601f19601f8501160185620001ee565b818452828287010111620001e95760005b8181106200027457508260009394955001015290565b85810183015184820184015282016200025e565b51906001600160a01b0382168203620001e957565b6001600160a01b031660008181527fad3228b676f7d3cd4284a5443f17f1962b36e491b30a40b2405849e597ba5fb5602052604081205490919060ff166200032a57818052816020526040822081835260205260408220600160ff1982541617905533917f2f8788117e7eff1d82e926ec794901d17c78024a50270940304540a733656f0d8180a4600190565b509056fe6080604052600436101561001257600080fd5b60003560e01c806301ffc9a7146100c7578063248a9ca3146100c25780632f2ff15d146100bd57806333f7789b146100b857806336568abe146100b357806382aefa24146100ae57806384fb67d2146100a957806391d14854146100a4578063957839d91461009f578063a217fddf1461009a5763d547741f1461009557600080fd5b6105d5565b6105b9565b61053e565b6104e7565b61040f565b6103d4565b610371565b6102ba565b6101ad565b61016d565b34610168576020366003190112610168576004357fffffffff00000000000000000000000000000000000000000000000000000000811680910361016857807f7965db0b000000000000000000000000000000000000000000000000000000006020921490811561013e575b506040519015158152f35b7f01ffc9a70000000000000000000000000000000000000000000000000000000091501438610133565b600080fd5b346101685760203660031901126101685760043560005260006020526020600160406000200154604051908152f35b6001600160a01b0381160361016857565b34610168576040366003190112610168576101ef6024356004356101d08261019c565b8060005260006020526101ea6001604060002001546109b7565b610a24565b005b7f4e487b7100000000000000000000000000000000000000000000000000000000600052604160045260246000fd5b60a0810190811067ffffffffffffffff82111761023c57604052565b6101f1565b90601f8019910116810190811067ffffffffffffffff82111761023c57604052565b81601f820112156101685780359067ffffffffffffffff821161023c5760405192610298601f8401601f191660200185610241565b8284526020838301011161016857816000926020809301838601378301015290565b3461016857366003190160e081126101685760a013610168576040516102df81610220565b6004356102eb8161019c565b81526024356102f98161019c565b602082015260443560408201526064356060820152608435608082015267ffffffffffffffff9060a43582811161016857610338903690600401610263565b60c43592831161016857610353610359933690600401610263565b916106fa565b604080519215158352901515602083015290f35b0390f35b346101685760403660031901126101685760243561038e8161019c565b336001600160a01b038216036103aa576101ef90600435610b71565b60046040517f6697b232000000000000000000000000000000000000000000000000000000008152fd5b346101685760003660031901126101685760206040517f114e74f6ea3bd819998f78687bfcb11b140da08e9b7d222fa9c1f1ba1f2aa1228152f35b346101685760403660031901126101685761048a60206024356104318161019c565b6001600160a01b036002541660405180809581947f84fb67d2000000000000000000000000000000000000000000000000000000008352600435600484019092916001600160a01b036020916040840195845216910152565b03915afa80156104e25761036d916000916104b3575b5060405190151581529081906020820190565b6104d5915060203d6020116104db575b6104cd8183610241565b81019061099f565b386104a0565b503d6104c3565b6106d6565b3461016857604036600319011261016857602060ff61053260243561050b8161019c565b600435600052600084526040600020906001600160a01b0316600052602052604060002090565b54166040519015158152f35b346101685760403660031901126101685761048a60206024356105608161019c565b6001600160a01b036002541660405180809581947f957839d9000000000000000000000000000000000000000000000000000000008352600435600484019092916001600160a01b036020916040840195845216910152565b3461016857600036600319011261016857602060405160008152f35b34610168576040366003190112610168576101ef6024356004356105f88261019c565b8060005260006020526106126001604060002001546109b7565b610b71565b60405160208101907f56657269666961626c6543726564656e7469616c28616464726573732069737382527f7565722c61646472657373207375626a6563742c62797465733332206372656460408201527f656e7469616c5375626a6563742c75696e742076616c696446726f6d2c75696e60608201527f742076616c6964546f29000000000000000000000000000000000000000000006080820152606a81526106c181610220565b51902090565b90816020910312610168575190565b6040513d6000823e3d90fd5b9081602091031261016857516106f78161019c565b90565b9291600154906107216107156002546001600160a01b031690565b6001600160a01b031690565b9061072a610617565b9261073c87516001600160a01b031690565b9360208095818a019561075687516001600160a01b031690565b9160408c0151946107d28d6080606082015191015190604051988997889687967f58325f3c00000000000000000000000000000000000000000000000000000000885260048801929160a094919796959260c085019885526001600160a01b038092166020860152166040840152606083015260808201520152565b03915afa9182156104e2576108336108416108b0948894600091610972575b50604051928391868301958690916042927f19010000000000000000000000000000000000000000000000000000000000008352600283015260228201520190565b03601f198101835282610241565b5190209361086b61085d6107156003546001600160a01b031690565b91516001600160a01b031690565b9060405180809581947f8733d4e8000000000000000000000000000000000000000000000000000000008352600483019190916001600160a01b036020820193169052565b03915afa9384156104e25760009461092b575b50506108fa6108f46108e9610908936108df6109199798610ac2565b9491939092610ac2565b939194909589610b3f565b95610b3f565b95516001600160a01b031690565b6001600160a01b0390811691161490565b6001600160a01b038091941691161490565b61091994506108e9610908936108df6109606108fa95856108f496903d1061096b575b6109588183610241565b8101906106e2565b9750509350506108c3565b503d61094e565b6109929150853d8711610998575b61098a8183610241565b8101906106c7565b386107f1565b503d610980565b90816020910312610168575180151581036101685790565b80600052600060205260ff6109e3336040600020906001600160a01b0316600052602052604060002090565b5416156109ed5750565b604490604051907fe2517d3f0000000000000000000000000000000000000000000000000000000082523360048301526024820152fd5b6000908082528160205260ff610a508460408520906001600160a01b0316600052602052604060002090565b5416610abc5780825281602052610a7d8360408420906001600160a01b0316600052602052604060002090565b600160ff198254161790557f2f8788117e7eff1d82e926ec794901d17c78024a50270940304540a733656f0d6001600160a01b033394169280a4600190565b50905090565b6041815103610ae1576020810151916060604083015192015160001a90565b60646040517f08c379a000000000000000000000000000000000000000000000000000000000815260206004820152601860248201527f496e76616c6964207369676e6174757265206c656e67746800000000000000006044820152fd5b60209360009360ff60809460405194855216868401526040830152606082015282805260015afa156104e25760005190565b6000908082528160205260ff610b9d8460408520906001600160a01b0316600052602052604060002090565b541615610abc5780825281602052610bcb8360408420906001600160a01b0316600052602052604060002090565b60ff1981541690557ff6391f5c32d9c69d2a47ea670b442974b53935d1edc7fd64eb21e047a839171b6001600160a01b033394169280a460019056fea26469706673582212206697d99c4d1330ab8bb6ac1122f8fe2f6d0aa4f9638aff2140456010f154e84564736f6c63430008180033",
  "linkReferences": {},
  "deployedLinkReferences": {}
}