{
  "_format": "hh-sol-artifact-1",
  "contractName": "CredentialRegistry",
  "sourceName": "contracts/CredentialRegistry.sol",
  "abi": [
    {
      "inputs": [],
      "stateMutability": "nonpayable",
      "type": "constructor"
    },
    {
      "inputs": [],
      "name": "AccessControlBadConfirmation",
      "type": "error"
    },
    {
      "inputs": [
        {
          "internalType": "address",
          "name": "account",
          "type": "address"
        },
        {
          "internalType": "bytes32",
          "name": "neededRole",
          "type": "bytes32"
        }
      ],
      "name": "AccessControlUnauthorizedAccount",
      "type": "error"
    },
    {
      "inputs": [],
      "name": "CredentialExists",
      "type": "error"
    },
    {
      "inputs": [],
      "name": "InvalidCredential",
      "type": "error"
    },
    {
      "inputs": [],
      "name": "InvalidSignature",
      "type": "error"
    },
    {
      "inputs": [],
      "name": "NotIssuer",
      "type": "error"
    },
    {
      "anonymous": false,
      "inputs": [
        {
          "indexed": true,
          "internalType": "bytes32",
          "name": "credentialHash",
          "type": "bytes32"
        },
        {
          "indexed": false,
          "internalType": "address",
          "name": "by",
          "type": "address"
        },
        {
          "indexed": false,
          "internalType": "address",
          "name": "id",
          "type": "address"
        },
        {
          "indexed": false,
          "internalType": "uint256",
          "name": "iat",
          "type": "uint256"
        },
        {
          "indexed": false,
          "internalType": "bytes",
          "name": "proof",
          "type": "bytes"
        },
        {
          "indexed": false,
          "internalType": "uint256",
          "name": "nonce",
          "type": "uint256"
        }
      ],
      "name": "CredentialRegistered",
      "type": "event"
    },
    {
      "anonymous": false,
      "inputs": [
        {
          "indexed": true,
          "internalType": "bytes32",
          "name": "credentialHash",
          "type": "bytes32"
        },
        {
          "indexed": false,
          "internalType": "address",
          "name": "by",
          "type": "address"
        },
        {
          "indexed": false,
          "internalType": "uint256",
          "name": "date",
          "type": "uint256"
        }
      ],
      "name": "CredentialRevoked",
      "type": "event"
    },
    {
      "anonymous": false,
      "inputs": [
        {
          "indexed": true,
          "internalType": "bytes32",
          "name": "role",
          "type": "bytes32"
        },
        {
          "indexed": true,
          "internalType": "bytes32",
          "name": "previousAdminRole",
          "type": "bytes32"
        },
        {
          "indexed": true,
          "internalType": "bytes32",
          "name": "newAdminRole",
          "type": "bytes32"
        }
      ],
      "name": "RoleAdminChanged",
      "type": "event"
    },
    {
      "anonymous": false,
      "inputs": [
        {
          "indexed": true,
          "internalType": "bytes32",
          "name": "role",
          "type": "bytes32"
        },
        {
          "indexed": true,
          "internalType": "address",
          "name": "account",
          "type": "address"
        },
        {
          "indexed": true,
          "internalType": "address",
          "name": "sender",
          "type": "address"
        }
      ],
      "name": "RoleGranted",
      "type": "event"
    },
    {
      "anonymous": false,
      "inputs": [
        {
          "indexed": true,
          "internalType": "bytes32",
          "name": "role",
          "type": "bytes32"
        },
        {
          "indexed": true,
          "internalType": "address",
          "name": "account",
          "type": "address"
        },
        {
          "indexed": true,
          "internalType": "address",
          "name": "sender",
          "type": "address"
        }
      ],
      "name": "RoleRevoked",
      "type": "event"
    },
    {
      "inputs": [],
      "name": "DEFAULT_ADMIN_ROLE",
      "outputs": [
        {
          "internalType": "bytes32",
          "name": "",
          "type": "bytes32"
        }
      ],
      "stateMutability": "view",
      "type": "function"
    },
    {
      "inputs": [],
      "name": "ISSUER_ROLE",
      "outputs": [
        {
          "internalType": "bytes32",
          "name": "",
          "type": "bytes32"
        }
      ],
      "stateMutability": "view",
      "type": "function"
    },
    {
      "inputs": [
        {
          "internalType": "bytes32",
          "name": "",
          "type": "bytes32"
        },
        {
          "internalType": "address",
          "name": "",
          "type": "address"
        }
      ],
      "name": "credentials",
      "outputs": [
        {
          "internalType": "address",
          "name": "issuer",
          "type": "address"
        },
        {
          "internalType": "address",
          "name": "subject",
          "type": "address"
        },
        {
          "internalType": "uint256",
          "name": "validFrom",
          "type": "uint256"
        },
        {
          "internalType": "uint256",
          "name": "validTo",
          "type": "uint256"
        },
        {
          "internalType": "bool",
          "name": "status",
          "type": "bool"
        }
      ],
      "stateMutability": "view",
      "type": "function"
    },
    {
      "inputs": [
        {
          "internalType": "bytes32",
          "name": "_credentialHash",
          "type": "bytes32"
        },
        {
          "internalType": "address",
          "name": "issuer",
          "type": "address"
        }
      ],
      "name": "exist",
      "outputs": [
        {
          "internalType": "bool",
          "name": "",
          "type": "bool"
        }
      ],
      "stateMutability": "view",
      "type": "function"
    },
    {
      "inputs": [
        {
          "internalType": "bytes32",
          "name": "_credentialHash",
          "type": "bytes32"
        },
        {
          "internalType": "address",
          "name": "_issuer",
          "type": "address"
        }
      ],
      "name": "getCredential",
      "outputs": [
        {
          "components": [
            {
              "internalType": "address",
              "name": "issuer",
              "type": "address"
            },
            {
              "internalType": "address",
              "name": "subject",
              "type": "address"
            },
            {
              "internalType": "uint256",
              "name": "validFrom",
              "type": "uint256"
            },
            {
              "internalType": "uint256",
              "name": "validTo",
              "type": "uint256"
            },
            {
              "internalType": "bool",
              "name": "status",
              "type": "bool"
            }
          ],
          "internalType": "struct ICredentialRegistry.CredentialMetadataView",
          "name": "",
          "type": "tuple"
        }
      ],
      "stateMutability": "view",
      "type": "function"
    },
    {
      "inputs": [
        {
          "internalType": "bytes32",
          "name": "digest",
          "type": "bytes32"
        },
        {
          "internalType": "uint8",
          "name": "v",
          "type": "uint8"
        },
        {
          "internalType": "bytes32",
          "name": "r",
          "type": "bytes32"
        },
        {
          "internalType": "bytes32",
          "name": "s",
          "type": "bytes32"
        }
      ],
      "name": "getIssuer",
      "outputs": [
        {
          "internalType": "address",
          "name": "issuer",
          "type": "address"
        }
      ],
      "stateMutability": "pure",
      "type": "function"
    },
    {
      "inputs": [
        {
          "internalType": "bytes32",
          "name": "role",
          "type": "bytes32"
        }
      ],
      "name": "getRoleAdmin",
      "outputs": [
        {
          "internalType": "bytes32",
          "name": "",
          "type": "bytes32"
        }
      ],
      "stateMutability": "view",
      "type": "function"
    },
    {
      "inputs": [
        {
          "internalType": "bytes32",
          "name": "role",
          "type": "bytes32"
        },
        {
          "internalType": "address",
          "name": "account",
          "type": "address"
        }
      ],
      "name": "grantRole",
      "outputs": [],
      "stateMutability": "nonpayable",
      "type": "function"
    },
    {
      "inputs": [
        {
          "internalType": "bytes32",
          "name": "role",
          "type": "bytes32"
        },
        {
          "internalType": "address",
          "name": "account",
          "type": "address"
        }
      ],
      "name": "hasRole",
      "outputs": [
        {
          "internalType": "bool",
          "name": "",
          "type": "bool"
        }
      ],
      "stateMutability": "view",
      "type": "function"
    },
    {
      "inputs": [
        {
          "internalType": "bytes32",
          "name": "_vcTypeHash",
          "type": "bytes32"
        },
        {
          "internalType": "address",
          "name": "_issuer",
          "type": "address"
        },
        {
          "internalType": "address",
          "name": "_subject",
          "type": "address"
        },
        {
          "internalType": "bytes32",
          "name": "_credentialSubjectHex",
          "type": "bytes32"
        },
        {
          "internalType": "uint256",
          "name": "_validFrom",
          "type": "uint256"
        },
        {
          "internalType": "uint256",
          "name": "_validTo",
          "type": "uint256"
        }
      ],
      "name": "hashVerifiableCredential",
      "outputs": [
        {
          "internalType": "bytes32",
          "name": "",
          "type": "bytes32"
        }
      ],
      "stateMutability": "pure",
      "type": "function"
    },
    {
      "inputs": [
        {
          "internalType": "address",
          "name": "",
          "type": "address"
        }
      ],
      "name": "nonces",
      "outputs": [
        {
          "internalType": "uint256",
          "name": "",
          "type": "uint256"
        }
      ],
      "stateMutability": "view",
      "type": "function"
    },
    {
      "inputs": [
        {
          "internalType": "address",
          "name": "_issuer",
          "type": "address"
        },
        {
          "internalType": "address",
          "name": "_subject",
          "type": "address"
        },
        {
          "internalType": "bytes32",
          "name": "_credentialHash",
          "type": "bytes32"
        },
        {
          "internalType": "uint256",
          "name": "_from",
          "type": "uint256"
        },
        {
          "internalType": "uint256",
          "name": "_exp",
          "type": "uint256"
        },
        {
          "components": [
            {
              "internalType": "uint8",
              "name": "v",
              "type": "uint8"
            },
            {
              "internalType": "bytes32",
              "name": "r",
              "type": "bytes32"
            },
            {
              "internalType": "bytes32",
              "name": "s",
              "type": "bytes32"
            }
          ],
          "internalType": "struct ICredentialRegistry.Signature",
          "name": "_signaturePart",
          "type": "tuple"
        }
      ],
      "name": "registerCredential",
      "outputs": [],
      "stateMutability": "nonpayable",
      "type": "function"
    },
    {
      "inputs": [
        {
          "internalType": "bytes32",
          "name": "role",
          "type": "bytes32"
        },
        {
          "internalType": "address",
          "name": "callerConfirmation",
          "type": "address"
        }
      ],
      "name": "renounceRole",
      "outputs": [],
      "stateMutability": "nonpayable",
      "type": "function"
    },
    {
      "inputs": [
        {
          "internalType": "bytes32",
          "name": "_credentialHash",
          "type": "bytes32"
        },
        {
          "components": [
            {
              "internalType": "uint8",
              "name": "v",
              "type": "uint8"
            },
            {
              "internalType": "bytes32",
              "name": "r",
              "type": "bytes32"
            },
            {
              "internalType": "bytes32",
              "name": "s",
              "type": "bytes32"
            }
          ],
          "internalType": "struct ICredentialRegistry.Signature",
          "name": "_signaturePart",
          "type": "tuple"
        },
        {
          "internalType": "bytes32",
          "name": "_domainSeparator",
          "type": "bytes32"
        },
        {
          "internalType": "address",
          "name": "_issuer",
          "type": "address"
        }
      ],
      "name": "revokeCredential",
      "outputs": [],
      "stateMutability": "nonpayable",
      "type": "function"
    },
    {
      "inputs": [
        {
          "internalType": "bytes32",
          "name": "role",
          "type": "bytes32"
        },
        {
          "internalType": "address",
          "name": "account",
          "type": "address"
        }
      ],
      "name": "revokeRole",
      "outputs": [],
      "stateMutability": "nonpayable",
      "type": "function"
    },
    {
      "inputs": [
        {
          "internalType": "bytes4",
          "name": "interfaceId",
          "type": "bytes4"
        }
      ],
      "name": "supportsInterface",
      "outputs": [
        {
          "internalType": "bool",
          "name": "",
          "type": "bool"
        }
      ],
      "stateMutability": "view",
      "type": "function"
    },
    {
      "inputs": [
        {
          "internalType": "bytes32",
          "name": "_credentialHash",
          "type": "bytes32"
        },
        {
          "internalType": "address",
          "name": "issuer",
          "type": "address"
        }
      ],
      "name": "validate",
      "outputs": [
        {
          "internalType": "bool",
          "name": "",
          "type": "bool"
        }
      ],
      "stateMutability": "view",
      "type": "function"
    },
    {
      "inputs": [
        {
          "internalType": "address",
          "name": "issuer",
          "type": "address"
        },
        {
          "internalType": "address",
          "name": "signer",
          "type": "address"
        }
      ],
      "name": "verifyIssuer",
      "outputs": [
        {
          "internalType": "bool",
          "name": "",
          "type": "bool"
        }
      ],
      "stateMutability": "pure",
      "type": "function"
    }
  ],
  "bytecode": "0x6080604052346100225761001233610027565b50604051610ef190816100b88239f35b600080fd5b6001600160a01b031660008181527fad3228b676f7d3cd4284a5443f17f1962b36e491b30a40b2405849e597ba5fb5602052604081205490919060ff166100b357818052816020526040822081835260205260408220600160ff1982541617905533917f2f8788117e7eff1d82e926ec794901d17c78024a50270940304540a733656f0d8180a4600190565b509056fe608060408181526004908136101561001657600080fd5b600092833560e01c90816301ffc9a714610b2f57508063248a9ca314610b0557806328073c7c14610a3a5780632f2ff15d14610a1257806336568abe146109b257806358325f3c1461090e5780637b650355146106015780637ecebe00146105ca57806382aefa241461058f57806384fb67d21461056757806387cf356e1461052e5780639052944e146104bd57806391d1485414610478578063957839d91461041c578063a217fddf146103fd578063d547741f146103c0578063f078e5db1461034b5763f12a3d8d146100ea57600080fd5b346103475760c036600319011261034757813591606036602319011261034357815161011581610c31565b60243560ff8116810361033f578152602091604435838301526064358483015260a4356001600160a01b0381169283820361033b57868852600185528588208489528552858820936101678389610c70565b156103135761019e8389600052600160205260406000206001600160a01b0380921660005260205260016040600020015416151590565b156102b75786516001600160a01b03841687820190815260208082018b90528282039081018352605f01601f191682019167ffffffffffffffff8311818410176102a457908291610251969594938b52519020918b5260028852888b2054888201927f190000000000000000000000000000000000000000000000000000000000000084528c60218401526084356022840152604283015260628201526062815261024881610bff565b51902090610e1a565b501561029657509060057f80d4746828447d65eceb938c7f9d85fbeb232fe7819d5209ed452b3940f8904b93920160ff1981541690558151903382524290820152a280f35b8351638baa579f60e01b8152fd5b60248c604189634e487b7160e01b835252fd5b606484878951917f08c379a0000000000000000000000000000000000000000000000000000000008352820152601860248201527f43726564656e7469616c20646f65736e277420657869737400000000000000006044820152fd5b8387517fcaa03ea5000000000000000000000000000000000000000000000000000000008152fd5b8780fd5b8580fd5b8380fd5b8280fd5b50346103475780600319360112610347578060a093610368610bce565b9335815260016020528181206001600160a01b0380951682526020522082815416926001820154169160028201549060ff60056003850154940154169381519586526020860152840152606083015215156080820152f35b50346103475780600319360112610347576103f991356103f460016103e3610bce565b938387528660205286200154610cc6565b610da4565b5080f35b83823461041857816003193601126104185751908152602090f35b5080fd5b5082346104755781600319360112610475575061046c60209261043d610bce565b9035600052600160205260406000206001600160a01b0380921660005260205260016040600020015416151590565b90519015158152f35b80fd5b5090346103475781600319360112610347578160209360ff92610499610bce565b903582528186526001600160a01b0383832091168252855220541690519015158152f35b509034610347576080366003190112610347578260243560ff811681036104185783519235835260ff16602080840191909152604435604084015260643560608401528180529160809060015afa15610524576001600160a01b0360209251915191168152f35b51903d90823e3d90fd5b83823461041857806003193601126104185760209061054b610be9565b6001600160a01b038061055c610bce565b169116149051908152f35b5082346104755781600319360112610475575061046c602092610588610bce565b9035610c70565b838234610418578160031936011261041857602090517f114e74f6ea3bd819998f78687bfcb11b140da08e9b7d222fa9c1f1ba1f2aa1228152f35b83823461041857602036600319011261041857806020926001600160a01b036105f1610be9565b1681526002845220549051908152f35b50829034610418576101003660031901126104185761061e610be9565b90610627610bce565b604435929060643560603660a319011261033f5783519061064782610c31565b60a43560ff8116810361033b5790829188935260209586830160c4358152888285019660e435885281875260018a52838720988a60ff866001600160a01b039a8b85169d8e8252845261069e85838320988d610e1a565b90947f114e74f6ea3bd819998f78687bfcb11b140da08e9b7d222fa9c1f1ba1f2aa12283528281528d8484209216835252205416156108e657156108d75761070e818d600052600160205260406000206001600160a01b0380921660005260205260016040600020015416151590565b90816108c6575b5061089e577fffffffffffffffffffffffff0000000000000000000000000000000000000000968988845416178355600183019116809782541617905583600282015560843560038201557fff00000000000000000000000000000000000000000000000000000000000000600582019260ff199360018582541617905551975195518451968b8801998a528588015260f81b16606086015260418552608085019085821067ffffffffffffffff83111761088b579089866001938f848852846107e38d8551928391610c4d565b8301910160808201520301902091825416179055858952600287528089205493600019850194851161087857927fb15a6acbb25c9342656cd513fa6728cab579c0669be5f9f01236abf9c38298f4979694928260c097956108639451998a98895288015286015260a060608601525180938160a087015286860190610c4d565b6080830152601f01601f19168101030190a280f35b60248a60118d634e487b7160e01b835252fd5b60248c60418f634e487b7160e01b835252fd5b8c84517faa3ea2ac000000000000000000000000000000000000000000000000000000008152fd5b6108d191508c610c70565b8e610715565b8d8551638baa579f60e01b8152fd5b8e86517f54ec5063000000000000000000000000000000000000000000000000000000008152fd5b508290346104185760c03660031901126104185761092a610bce565b90604435906001600160a01b03918281168091036109ae5781519260208401948735865216828401526060830152606435608083015260843560a083015260a43560c083015260c0825260e082019382851067ffffffffffffffff86111761099b5750602094508390525190208152f35b80604187634e487b7160e01b6024945252fd5b8480fd5b508290346104185780600319360112610418576109cd610bce565b90336001600160a01b038316036109ea57506103f9919235610da4565b8390517f6697b232000000000000000000000000000000000000000000000000000000008152fd5b50346103475780600319360112610347576103f99135610a3560016103e3610bce565b610d25565b5090346103475781600319360112610347578160a093610a58610bce565b928160808451610a6781610bff565b8281528260208201528286820152826060820152015235815260016020528181206001600160a01b038094168252602052208181541692826001830154169260028301549060ff60056003860154950154169460808451610ac781610bff565b888152602081019283528581019485526060810196875201951515865283519687525116602086015251908401525160608301525115156080820152f35b50903461034757602036600319011261034757816020936001923581528085522001549051908152f35b8490843461034757602036600319011261034757357fffffffff00000000000000000000000000000000000000000000000000000000811680910361034757602092507f7965db0b000000000000000000000000000000000000000000000000000000008114908115610ba4575b5015158152f35b7f01ffc9a70000000000000000000000000000000000000000000000000000000091501483610b9d565b602435906001600160a01b0382168203610be457565b600080fd5b600435906001600160a01b0382168203610be457565b60a0810190811067ffffffffffffffff821117610c1b57604052565b634e487b7160e01b600052604160045260246000fd5b6060810190811067ffffffffffffffff821117610c1b57604052565b60005b838110610c605750506000910152565b8181015183820152602001610c50565b60005260016020526001600160a01b0360406000209116600052602052604060002060028101544210159081610cb6575b81610caa575090565b60ff9150600501541690565b9050426003820154101590610ca1565b80600052600060205260406000203360005260205260ff6040600020541615610cec5750565b6040517fe2517d3f0000000000000000000000000000000000000000000000000000000081523360048201526024810191909152604490fd5b90600091808352826020526001600160a01b036040842092169182845260205260ff60408420541615600014610d9f57808352826020526040832082845260205260408320600160ff198254161790557f2f8788117e7eff1d82e926ec794901d17c78024a50270940304540a733656f0d339380a4600190565b505090565b90600091808352826020526001600160a01b036040842092169182845260205260ff604084205416600014610d9f5780835282602052604083208284526020526040832060ff1981541690557ff6391f5c32d9c69d2a47ea670b442974b53935d1edc7fd64eb21e047a839171b339380a4600190565b8051602080830151604093840151845195865260ff909316858301529284019290925260608301526000808052939291849060809060015afa15610eb0578251926001600160a01b03808516921682149182610e77575b50509190565b8152600260205260408120805490916000198214610e9c575060010190553880610e71565b80634e487b7160e01b602492526011600452fd5b6040513d84823e3d90fdfea26469706673582212202e7e71df9ee58ff70bc9f6099c75725ae6217a3f1795caf1cad02a132f34086964736f6c63430008180033",
  "linkReferences": {},
  "deployedLinkReferences": {}
}