{
  "_format": "hh-sol-artifact-1",
  "contractName": "CredentialRegistry",
  "sourceName": "contracts/CredentialRegistry.sol",
  "abi": [
    {
      "inputs": [],
      "stateMutability": "nonpayable",
      "type": "constructor"
    },
    {
      "inputs": [],
      "name": "AccessControlBadConfirmation",
      "type": "error"
    },
    {
      "inputs": [
        {
          "internalType": "address",
          "name": "account",
          "type": "address"
        },
        {
          "internalType": "bytes32",
          "name": "neededRole",
          "type": "bytes32"
        }
      ],
      "name": "AccessControlUnauthorizedAccount",
      "type": "error"
    },
    {
      "inputs": [],
      "name": "CredentialExists",
      "type": "error"
    },
    {
      "inputs": [],
      "name": "InvalidCredential",
      "type": "error"
    },
    {
      "inputs": [],
      "name": "InvalidSignature",
      "type": "error"
    },
    {
      "inputs": [],
      "name": "NotIssuer",
      "type": "error"
    },
    {
      "anonymous": false,
      "inputs": [
        {
          "indexed": true,
          "internalType": "bytes32",
          "name": "credentialHash",
          "type": "bytes32"
        },
        {
          "indexed": false,
          "internalType": "address",
          "name": "by",
          "type": "address"
        },
        {
          "indexed": false,
          "internalType": "address",
          "name": "to",
          "type": "address"
        },
        {
          "indexed": false,
          "internalType": "uint256",
          "name": "iat",
          "type": "uint256"
        },
        {
          "indexed": false,
          "internalType": "uint256",
          "name": "nonce",
          "type": "uint256"
        }
      ],
      "name": "CredentialRegistered",
      "type": "event"
    },
    {
      "anonymous": false,
      "inputs": [
        {
          "indexed": true,
          "internalType": "bytes32",
          "name": "credentialHash",
          "type": "bytes32"
        },
        {
          "indexed": false,
          "internalType": "address",
          "name": "by",
          "type": "address"
        },
        {
          "indexed": false,
          "internalType": "uint256",
          "name": "date",
          "type": "uint256"
        }
      ],
      "name": "CredentialRevoked",
      "type": "event"
    },
    {
      "anonymous": false,
      "inputs": [
        {
          "indexed": true,
          "internalType": "bytes32",
          "name": "role",
          "type": "bytes32"
        },
        {
          "indexed": true,
          "internalType": "bytes32",
          "name": "previousAdminRole",
          "type": "bytes32"
        },
        {
          "indexed": true,
          "internalType": "bytes32",
          "name": "newAdminRole",
          "type": "bytes32"
        }
      ],
      "name": "RoleAdminChanged",
      "type": "event"
    },
    {
      "anonymous": false,
      "inputs": [
        {
          "indexed": true,
          "internalType": "bytes32",
          "name": "role",
          "type": "bytes32"
        },
        {
          "indexed": true,
          "internalType": "address",
          "name": "account",
          "type": "address"
        },
        {
          "indexed": true,
          "internalType": "address",
          "name": "sender",
          "type": "address"
        }
      ],
      "name": "RoleGranted",
      "type": "event"
    },
    {
      "anonymous": false,
      "inputs": [
        {
          "indexed": true,
          "internalType": "bytes32",
          "name": "role",
          "type": "bytes32"
        },
        {
          "indexed": true,
          "internalType": "address",
          "name": "account",
          "type": "address"
        },
        {
          "indexed": true,
          "internalType": "address",
          "name": "sender",
          "type": "address"
        }
      ],
      "name": "RoleRevoked",
      "type": "event"
    },
    {
      "inputs": [],
      "name": "DEFAULT_ADMIN_ROLE",
      "outputs": [
        {
          "internalType": "bytes32",
          "name": "",
          "type": "bytes32"
        }
      ],
      "stateMutability": "view",
      "type": "function"
    },
    {
      "inputs": [],
      "name": "ISSUER_ROLE",
      "outputs": [
        {
          "internalType": "bytes32",
          "name": "",
          "type": "bytes32"
        }
      ],
      "stateMutability": "view",
      "type": "function"
    },
    {
      "inputs": [
        {
          "internalType": "bytes32",
          "name": "",
          "type": "bytes32"
        },
        {
          "internalType": "address",
          "name": "",
          "type": "address"
        }
      ],
      "name": "credentials",
      "outputs": [
        {
          "internalType": "address",
          "name": "issuer",
          "type": "address"
        },
        {
          "internalType": "address",
          "name": "subject",
          "type": "address"
        },
        {
          "internalType": "uint256",
          "name": "validFrom",
          "type": "uint256"
        },
        {
          "internalType": "uint256",
          "name": "validTo",
          "type": "uint256"
        },
        {
          "internalType": "bool",
          "name": "status",
          "type": "bool"
        }
      ],
      "stateMutability": "view",
      "type": "function"
    },
    {
      "inputs": [
        {
          "internalType": "bytes32",
          "name": "_credentialHash",
          "type": "bytes32"
        },
        {
          "internalType": "address",
          "name": "issuer",
          "type": "address"
        }
      ],
      "name": "exist",
      "outputs": [
        {
          "internalType": "bool",
          "name": "",
          "type": "bool"
        }
      ],
      "stateMutability": "view",
      "type": "function"
    },
    {
      "inputs": [
        {
          "internalType": "bytes32",
          "name": "_credentialHash",
          "type": "bytes32"
        },
        {
          "internalType": "address",
          "name": "_issuer",
          "type": "address"
        }
      ],
      "name": "getCredential",
      "outputs": [
        {
          "components": [
            {
              "internalType": "address",
              "name": "issuer",
              "type": "address"
            },
            {
              "internalType": "address",
              "name": "subject",
              "type": "address"
            },
            {
              "internalType": "uint256",
              "name": "validFrom",
              "type": "uint256"
            },
            {
              "internalType": "uint256",
              "name": "validTo",
              "type": "uint256"
            },
            {
              "internalType": "bool",
              "name": "status",
              "type": "bool"
            }
          ],
          "internalType": "struct ICredentialRegistry.CredentialMetadataView",
          "name": "",
          "type": "tuple"
        }
      ],
      "stateMutability": "view",
      "type": "function"
    },
    {
      "inputs": [
        {
          "internalType": "bytes32",
          "name": "digest",
          "type": "bytes32"
        },
        {
          "internalType": "uint8",
          "name": "v",
          "type": "uint8"
        },
        {
          "internalType": "bytes32",
          "name": "r",
          "type": "bytes32"
        },
        {
          "internalType": "bytes32",
          "name": "s",
          "type": "bytes32"
        }
      ],
      "name": "getIssuer",
      "outputs": [
        {
          "internalType": "address",
          "name": "issuer",
          "type": "address"
        }
      ],
      "stateMutability": "pure",
      "type": "function"
    },
    {
      "inputs": [
        {
          "internalType": "bytes32",
          "name": "role",
          "type": "bytes32"
        }
      ],
      "name": "getRoleAdmin",
      "outputs": [
        {
          "internalType": "bytes32",
          "name": "",
          "type": "bytes32"
        }
      ],
      "stateMutability": "view",
      "type": "function"
    },
    {
      "inputs": [
        {
          "internalType": "bytes32",
          "name": "role",
          "type": "bytes32"
        },
        {
          "internalType": "address",
          "name": "account",
          "type": "address"
        }
      ],
      "name": "grantRole",
      "outputs": [],
      "stateMutability": "nonpayable",
      "type": "function"
    },
    {
      "inputs": [
        {
          "internalType": "bytes32",
          "name": "role",
          "type": "bytes32"
        },
        {
          "internalType": "address",
          "name": "account",
          "type": "address"
        }
      ],
      "name": "hasRole",
      "outputs": [
        {
          "internalType": "bool",
          "name": "",
          "type": "bool"
        }
      ],
      "stateMutability": "view",
      "type": "function"
    },
    {
      "inputs": [
        {
          "internalType": "bytes32",
          "name": "_vcTypeHash",
          "type": "bytes32"
        },
        {
          "internalType": "address",
          "name": "_issuer",
          "type": "address"
        },
        {
          "internalType": "address",
          "name": "_subject",
          "type": "address"
        },
        {
          "internalType": "bytes32",
          "name": "_credentialSubjectHex",
          "type": "bytes32"
        },
        {
          "internalType": "uint256",
          "name": "_validFrom",
          "type": "uint256"
        },
        {
          "internalType": "uint256",
          "name": "_validTo",
          "type": "uint256"
        }
      ],
      "name": "hashVerifiableCredential",
      "outputs": [
        {
          "internalType": "bytes32",
          "name": "",
          "type": "bytes32"
        }
      ],
      "stateMutability": "pure",
      "type": "function"
    },
    {
      "inputs": [
        {
          "internalType": "address",
          "name": "",
          "type": "address"
        }
      ],
      "name": "nonces",
      "outputs": [
        {
          "internalType": "uint256",
          "name": "",
          "type": "uint256"
        }
      ],
      "stateMutability": "view",
      "type": "function"
    },
    {
      "inputs": [
        {
          "internalType": "address",
          "name": "_issuer",
          "type": "address"
        },
        {
          "internalType": "address",
          "name": "_subject",
          "type": "address"
        },
        {
          "internalType": "bytes32",
          "name": "_credentialHash",
          "type": "bytes32"
        },
        {
          "internalType": "uint256",
          "name": "_from",
          "type": "uint256"
        },
        {
          "internalType": "uint256",
          "name": "_exp",
          "type": "uint256"
        },
        {
          "components": [
            {
              "internalType": "uint8",
              "name": "v",
              "type": "uint8"
            },
            {
              "internalType": "bytes32",
              "name": "r",
              "type": "bytes32"
            },
            {
              "internalType": "bytes32",
              "name": "s",
              "type": "bytes32"
            }
          ],
          "internalType": "struct ICredentialRegistry.Signature",
          "name": "_signaturePart",
          "type": "tuple"
        }
      ],
      "name": "registerCredential",
      "outputs": [],
      "stateMutability": "nonpayable",
      "type": "function"
    },
    {
      "inputs": [
        {
          "internalType": "address",
          "name": "_issuer",
          "type": "address"
        },
        {
          "internalType": "address",
          "name": "_subject",
          "type": "address"
        },
        {
          "internalType": "bytes32",
          "name": "_credentialHash",
          "type": "bytes32"
        },
        {
          "internalType": "uint256",
          "name": "_from",
          "type": "uint256"
        },
        {
          "internalType": "uint256",
          "name": "_exp",
          "type": "uint256"
        }
      ],
      "name": "registerCredentialEOA",
      "outputs": [],
      "stateMutability": "nonpayable",
      "type": "function"
    },
    {
      "inputs": [
        {
          "internalType": "bytes32",
          "name": "role",
          "type": "bytes32"
        },
        {
          "internalType": "address",
          "name": "callerConfirmation",
          "type": "address"
        }
      ],
      "name": "renounceRole",
      "outputs": [],
      "stateMutability": "nonpayable",
      "type": "function"
    },
    {
      "inputs": [
        {
          "internalType": "bytes32",
          "name": "_credentialHash",
          "type": "bytes32"
        },
        {
          "components": [
            {
              "internalType": "uint8",
              "name": "v",
              "type": "uint8"
            },
            {
              "internalType": "bytes32",
              "name": "r",
              "type": "bytes32"
            },
            {
              "internalType": "bytes32",
              "name": "s",
              "type": "bytes32"
            }
          ],
          "internalType": "struct ICredentialRegistry.Signature",
          "name": "_signaturePart",
          "type": "tuple"
        },
        {
          "internalType": "bytes32",
          "name": "_domainSeparator",
          "type": "bytes32"
        },
        {
          "internalType": "address",
          "name": "_issuer",
          "type": "address"
        }
      ],
      "name": "revokeCredential",
      "outputs": [],
      "stateMutability": "nonpayable",
      "type": "function"
    },
    {
      "inputs": [
        {
          "internalType": "bytes32",
          "name": "_credentialHash",
          "type": "bytes32"
        },
        {
          "internalType": "address",
          "name": "_issuer",
          "type": "address"
        }
      ],
      "name": "revokeCredentialEOA",
      "outputs": [],
      "stateMutability": "nonpayable",
      "type": "function"
    },
    {
      "inputs": [
        {
          "internalType": "bytes32",
          "name": "role",
          "type": "bytes32"
        },
        {
          "internalType": "address",
          "name": "account",
          "type": "address"
        }
      ],
      "name": "revokeRole",
      "outputs": [],
      "stateMutability": "nonpayable",
      "type": "function"
    },
    {
      "inputs": [
        {
          "internalType": "bytes4",
          "name": "interfaceId",
          "type": "bytes4"
        }
      ],
      "name": "supportsInterface",
      "outputs": [
        {
          "internalType": "bool",
          "name": "",
          "type": "bool"
        }
      ],
      "stateMutability": "view",
      "type": "function"
    },
    {
      "inputs": [
        {
          "internalType": "bytes32",
          "name": "_credentialHash",
          "type": "bytes32"
        },
        {
          "internalType": "address",
          "name": "issuer",
          "type": "address"
        }
      ],
      "name": "validate",
      "outputs": [
        {
          "internalType": "bool",
          "name": "",
          "type": "bool"
        }
      ],
      "stateMutability": "view",
      "type": "function"
    },
    {
      "inputs": [
        {
          "internalType": "address",
          "name": "issuer",
          "type": "address"
        },
        {
          "internalType": "address",
          "name": "signer",
          "type": "address"
        }
      ],
      "name": "verifyIssuer",
      "outputs": [
        {
          "internalType": "bool",
          "name": "",
          "type": "bool"
        }
      ],
      "stateMutability": "pure",
      "type": "function"
    }
  ],
  "bytecode": "0x6080604052346100225761001233610027565b5060405161126e90816100b88239f35b600080fd5b6001600160a01b031660008181527fad3228b676f7d3cd4284a5443f17f1962b36e491b30a40b2405849e597ba5fb5602052604081205490919060ff166100b357818052816020526040822081835260205260408220600160ff1982541617905533917f2f8788117e7eff1d82e926ec794901d17c78024a50270940304540a733656f0d8180a4600190565b509056fe608060408181526004908136101561001657600080fd5b600092833560e01c90816301ffc9a714610d5957508063248a9ca314610d2f57806328073c7c14610c645780632f2ff15d14610c3c57806336568abe14610bdc57806358325f3c14610b385780635c144394146109235780637b6503551461065b5780637ecebe001461062457806382aefa24146105e957806384fb67d2146105c157806387cf356e146105885780639052944e1461051757806391d14854146104d2578063957839d914610476578063a217fddf14610457578063d547741f1461041a578063f078e5db146103a5578063f12a3d8d146101e55763f1b224ff1461010057600080fd5b346101e157806003193601126101e15781359161011b610df8565b6001600160a01b038116610130338214610eb5565b84865260016020528386209086526020528285209161014f8286610f23565b156101d357507f80d4746828447d65eceb938c7f9d85fbeb232fe7819d5209ed452b3940f8904b92916101b46101af60059387600052600160205260406000206001600160a01b0380921660005260205260016040600020015416151590565b610f79565b01805460ff191690555133815242602082015280604081015b0390a280f35b835163caa03ea560e01b8152fd5b8280fd5b50346101e15760c03660031901126101e15781359160603660231901126103a15781519061021282610e5b565b60243560ff8116810361039d578252602091604435838201526064358482015260a435906001600160a01b03821680830361039957868852600185528588208189528552858820946102648489610f23565b1561038a57908392916102a56101af610334968b600052600160205260406000206001600160a01b0380921660005260205260016040600020015416151590565b87516001600160a01b038516828201908152602081018b9052906102d5816040840103601f198101835282610e93565b519020918a5260028152878a20548851918201927f190100000000000000000000000000000000000000000000000000000000000084526084356022840152604283015260628201526062815261032b81610e29565b51902090611197565b501561037c5750600501805460ff19169055513381524260208201527f80d4746828447d65eceb938c7f9d85fbeb232fe7819d5209ed452b3940f8904b9080604081016101cd565b8251638baa579f60e01b8152fd5b84875163caa03ea560e01b8152fd5b8780fd5b8580fd5b8380fd5b50346101e157806003193601126101e1578060a0936103c2610df8565b9335815260016020528181206001600160a01b0380951682526020522082815416926001820154169160028201549060ff60056003850154940154169381519586526020860152840152606083015215156080820152f35b50346101e157806003193601126101e157610453913561044e600161043d610df8565b938387528660205286200154610fc4565b6110a2565b5080f35b83823461047257816003193601126104725751908152602090f35b5080fd5b5082346104cf57816003193601126104cf57506104c6602092610497610df8565b9035600052600160205260406000206001600160a01b0380921660005260205260016040600020015416151590565b90519015158152f35b80fd5b5090346101e157816003193601126101e1578160209360ff926104f3610df8565b903582528186526001600160a01b0383832091168252855220541690519015158152f35b5090346101e15760803660031901126101e1578260243560ff811681036104725783519235835260ff16602080840191909152604435604084015260643560608401528180529160809060015afa1561057e576001600160a01b0360209251915191168152f35b51903d90823e3d90fd5b8382346104725780600319360112610472576020906105a5610e13565b6001600160a01b03806105b6610df8565b169116149051908152f35b5082346104cf57816003193601126104cf57506104c66020926105e2610df8565b9035610f23565b838234610472578160031936011261047257602090517f114e74f6ea3bd819998f78687bfcb11b140da08e9b7d222fa9c1f1ba1f2aa1228152f35b83823461047257602036600319011261047257806020926001600160a01b0361064b610e13565b1681526002845220549051908152f35b508290346104725761010036600319011261047257610678610e13565b610680610df8565b9060443592606435606060a31936011261039d57815161069f81610e5b565b60a43560ff81168103610399578152866020918281019060c43582528581019060e435825289845260018552898785206001600160a01b0390818b1680975287528c60ff8a6106f28d8285209688611197565b7f114e74f6ea3bd819998f78687bfcb11b140da08e9b7d222fa9c1f1ba1f2aa1228552848c5282852090861685528b5292205416156108fb57156108ec576107628a8d600052600160205260406000206001600160a01b0380921660005260205260016040600020015416151590565b806108dc575b6108cd5773ffffffffffffffffffffffffffffffffffffffff19868184541617835560018301918c169082541617905586600282015560843560038201557fff00000000000000000000000000000000000000000000000000000000000000600582019460ff199560018782541617905551935192518951938885019586528a85015260f81b16606083015260418252608082019282841067ffffffffffffffff8511176108b9579560019284928f8461082e60029b869b9a998f528551928391610f00565b8301910160808201520301902091825416179055885252818620549160001983019283116108a657516001600160a01b039384168152939092166020840152604083019190915260608201527f0c1ba24cf3bfd698fd347943ef2a1e3b70aaf17dc953759c1abcb5edc59395469080608081016101cd565b60248760118a634e487b7160e01b835252fd5b5060248c60418f634e487b7160e01b835252fd5b8d8951632a8fa8ab60e21b8152fd5b506108e78a8d610f23565b610768565b8d8951638baa579f60e01b8152fd5b8e8a517f54ec5063000000000000000000000000000000000000000000000000000000008152fd5b50346101e15760a03660031901126101e15761093d610e13565b610945610df8565b9160443593606435907f114e74f6ea3bd819998f78687bfcb11b140da08e9b7d222fa9c1f1ba1f2aa1228752602090878252838820338952825261098e60ff858a205416610eb5565b6001600160a01b0390818616916109a6338414610eb5565b888a5260018452858a20838b528452858a20916109eb888b600052600160205260406000206001600160a01b0380921660005260205260016040600020015416151590565b80610b28575b610add5750926101cd949260056002938896610a627f0c1ba24cf3bfd698fd347943ef2a1e3b70aaf17dc953759c1abcb5edc59395469c9b9a51610a3481610e77565b601681527f5265676973746572696e672063726564656e7469616c0000000000000000000087820152611118565b73ffffffffffffffffffffffffffffffffffffffff19848184541617835560018301918c16908254161790558585820155608435600382015501600160ff198254161790558a525281882054915194859485909260609295949360808301966001600160a01b03809216845216602083015260408201520152565b86610b1b867f43726564656e7469616c20657869737473000000000000000000000000000000835191610b0f83610e77565b60118352820152611118565b51632a8fa8ab60e21b8152fd5b50610b33888b610f23565b6109f1565b508290346104725760c036600319011261047257610b54610df8565b90604435906001600160a01b0391828116809103610bd85781519260208401948735865216828401526060830152606435608083015260843560a083015260a43560c083015260c0825260e082019382851067ffffffffffffffff861117610bc55750602094508390525190208152f35b80604187634e487b7160e01b6024945252fd5b8480fd5b50829034610472578060031936011261047257610bf7610df8565b90336001600160a01b03831603610c1457506104539192356110a2565b8390517f6697b232000000000000000000000000000000000000000000000000000000008152fd5b50346101e157806003193601126101e1576104539135610c5f600161043d610df8565b611023565b5090346101e157816003193601126101e1578160a093610c82610df8565b928160808451610c9181610e29565b8281528260208201528286820152826060820152015235815260016020528181206001600160a01b038094168252602052208181541692826001830154169260028301549060ff60056003860154950154169460808451610cf181610e29565b888152602081019283528581019485526060810196875201951515865283519687525116602086015251908401525160608301525115156080820152f35b5090346101e15760203660031901126101e157816020936001923581528085522001549051908152f35b849084346101e15760203660031901126101e157357fffffffff0000000000000000000000000000000000000000000000000000000081168091036101e157602092507f7965db0b000000000000000000000000000000000000000000000000000000008114908115610dce575b5015158152f35b7f01ffc9a70000000000000000000000000000000000000000000000000000000091501483610dc7565b602435906001600160a01b0382168203610e0e57565b600080fd5b600435906001600160a01b0382168203610e0e57565b60a0810190811067ffffffffffffffff821117610e4557604052565b634e487b7160e01b600052604160045260246000fd5b6060810190811067ffffffffffffffff821117610e4557604052565b6040810190811067ffffffffffffffff821117610e4557604052565b90601f8019910116810190811067ffffffffffffffff821117610e4557604052565b15610ebc57565b606460405162461bcd60e51b815260206004820152600a60248201527f4e6f7420697373756572000000000000000000000000000000000000000000006044820152fd5b60005b838110610f135750506000910152565b8181015183820152602001610f03565b60005260016020526001600160a01b0360406000209116600052602052604060002060028101544210159081610f69575b81610f5d575090565b60ff9150600501541690565b9050426003820154101590610f54565b15610f8057565b606460405162461bcd60e51b815260206004820152601860248201527f43726564656e7469616c20646f65736e277420657869737400000000000000006044820152fd5b80600052600060205260406000203360005260205260ff6040600020541615610fea5750565b6040517fe2517d3f0000000000000000000000000000000000000000000000000000000081523360048201526024810191909152604490fd5b90600091808352826020526001600160a01b036040842092169182845260205260ff6040842054161560001461109d57808352826020526040832082845260205260408320600160ff198254161790557f2f8788117e7eff1d82e926ec794901d17c78024a50270940304540a733656f0d339380a4600190565b505090565b90600091808352826020526001600160a01b036040842092169182845260205260ff60408420541660001461109d5780835282602052604083208284526020526040832060ff1981541690557ff6391f5c32d9c69d2a47ea670b442974b53935d1edc7fd64eb21e047a839171b339380a4600190565b6000809160405161118460648260208101947f41304fac0000000000000000000000000000000000000000000000000000000086526020602483015261116d8151809281604486015260208686019101610f00565b601f80199101168101036044810184520182610e93565b51906a636f6e736f6c652e6c6f675afa50565b8051602080830151604093840151845195865260ff909316858301529284019290925260608301526000808052939291849060809060015afa1561122d578251926001600160a01b038085169216821491826111f4575b50509190565b81526002602052604081208054909160001982146112195750600101905538806111ee565b80634e487b7160e01b602492526011600452fd5b6040513d84823e3d90fdfea26469706673582212204e6e0f65a1a5ba2f6d5b24f1ad1c967211acbe5338097a2a7f04090eb4b8758764736f6c63430008180033",
  "linkReferences": {},
  "deployedLinkReferences": {}
}