{
  "_format": "hh-sol-artifact-1",
  "contractName": "Reputation",
  "sourceName": "contracts/Reputation.sol",
  "abi": [
    {
      "inputs": [],
      "name": "SocialAccountAdded",
      "type": "error"
    },
    {
      "inputs": [],
      "name": "VCAlreadyAdded",
      "type": "error"
    },
    {
      "anonymous": false,
      "inputs": [
        {
          "indexed": true,
          "internalType": "address",
          "name": "owner",
          "type": "address"
        },
        {
          "indexed": false,
          "internalType": "uint256",
          "name": "currentReputationPoint",
          "type": "uint256"
        }
      ],
      "name": "ReputationPointUpdated",
      "type": "event"
    },
    {
      "inputs": [
        {
          "internalType": "address",
          "name": "_owner",
          "type": "address"
        }
      ],
      "name": "addHistoricalTxPoint",
      "outputs": [],
      "stateMutability": "nonpayable",
      "type": "function"
    },
    {
      "inputs": [
        {
          "internalType": "address",
          "name": "_owner",
          "type": "address"
        },
        {
          "internalType": "enum IReputation.SocialAccountPoint",
          "name": "_socialPointType",
          "type": "uint8"
        }
      ],
      "name": "addSocialReputationPoint",
      "outputs": [],
      "stateMutability": "nonpayable",
      "type": "function"
    },
    {
      "inputs": [
        {
          "internalType": "address",
          "name": "_owner",
          "type": "address"
        },
        {
          "internalType": "bytes32",
          "name": "vcHash",
          "type": "bytes32"
        }
      ],
      "name": "addVCPoint",
      "outputs": [],
      "stateMutability": "nonpayable",
      "type": "function"
    },
    {
      "inputs": [
        {
          "internalType": "address",
          "name": "_owner",
          "type": "address"
        }
      ],
      "name": "getReputationByOwner",
      "outputs": [
        {
          "internalType": "uint256",
          "name": "",
          "type": "uint256"
        }
      ],
      "stateMutability": "view",
      "type": "function"
    },
    {
      "inputs": [
        {
          "internalType": "address",
          "name": "",
          "type": "address"
        }
      ],
      "name": "reputation",
      "outputs": [
        {
          "internalType": "uint256",
          "name": "totalReputationPoint",
          "type": "uint256"
        },
        {
          "internalType": "uint256",
          "name": "socialAccountPoint",
          "type": "uint256"
        },
        {
          "internalType": "uint256",
          "name": "transactionHistoryPoint",
          "type": "uint256"
        },
        {
          "internalType": "uint256",
          "name": "verifiableCredentialPoint",
          "type": "uint256"
        }
      ],
      "stateMutability": "view",
      "type": "function"
    }
  ],
  "bytecode": "0x608080604052346100165761046d908161001c8239f35b600080fdfe6080604081815260048036101561001557600080fd5b600092833560e01c9081631f7f82a1146103bb575080639d78be561461031e578063aad765fc146101f2578063b9f794511461019e5763eef532111461005a57600080fd5b3461019a578160031936011261019a576100726103ee565b916024359282841015610196576001600160a01b038116938486528560205260ff6100a2826001868a2001610409565b541661016e576100be9085875286602052600184882001610409565b600160ff1982541617905583855284602052600282862001805490600a820180921161015b5755838552846020528185205492600a8401809411610148575091602091610140827f03aa3b92d873874bb9d55eab0b06a4700843adfe8db8d64a6daf632fdaf3ee27956001600160a01b03166000526000602052604060002055565b51908152a280f35b856011602492634e487b7160e01b835252fd5b602487601187634e487b7160e01b835252fd5b5050517f2f94c5d8000000000000000000000000000000000000000000000000000000008152fd5b8480fd5b8280fd5b503461019a57602036600319011261019a57816080936001600160a01b036101c46103ee565b1681528060205220805492600282015492600383015492015492815194855260208501528301526060820152f35b5091903461031a578060031936011261031a5761020d6103ee565b602435906001600160a01b03811692838552602092858452600582872001818752845260ff82872054166102f2578486528584526005828720019086528352808520600160ff198254161790558385528483528581862001805490601482018092116102df57558385528483528085205491601483018093116102cc5790610140837f03aa3b92d873874bb9d55eab0b06a4700843adfe8db8d64a6daf632fdaf3ee279594936001600160a01b03166000526000602052604060002055565b602486601189634e487b7160e01b835252fd5b60248760118a634e487b7160e01b835252fd5b8682517fa92d2e43000000000000000000000000000000000000000000000000000000008152fd5b5080fd5b503461019a57602036600319011261019a576103386103ee565b916001600160a01b03831692838552846020526003828620018054906001820180921161015b575583855284602052818520549260018401809411610148575091602091610140827f03aa3b92d873874bb9d55eab0b06a4700843adfe8db8d64a6daf632fdaf3ee27956001600160a01b03166000526000602052604060002055565b8490843461019a57602036600319011261019a576020926001600160a01b036103e26103ee565b16815280845220548152f35b600435906001600160a01b038216820361040457565b600080fd5b90600481101561042157600052602052604060002090565b634e487b7160e01b600052602160045260246000fdfea2646970667358221220884b3f6201f9443568066e523a519349f06550a124cf0728528a76bf42858e9464736f6c63430008180033",
  "linkReferences": {},
  "deployedLinkReferences": {}
}