{
  "_format": "hh-sol-artifact-1",
  "contractName": "Verifier",
  "sourceName": "contracts/Verifier.sol",
  "abi": [
    {
      "inputs": [
        {
          "internalType": "string",
          "name": "name",
          "type": "string"
        },
        {
          "internalType": "string",
          "name": "version",
          "type": "string"
        },
        {
          "internalType": "uint256",
          "name": "chainId",
          "type": "uint256"
        },
        {
          "internalType": "address",
          "name": "credentialRegistryAddress",
          "type": "address"
        }
      ],
      "stateMutability": "nonpayable",
      "type": "constructor"
    },
    {
      "inputs": [],
      "name": "AccessControlBadConfirmation",
      "type": "error"
    },
    {
      "inputs": [
        {
          "internalType": "address",
          "name": "account",
          "type": "address"
        },
        {
          "internalType": "bytes32",
          "name": "neededRole",
          "type": "bytes32"
        }
      ],
      "name": "AccessControlUnauthorizedAccount",
      "type": "error"
    },
    {
      "anonymous": false,
      "inputs": [
        {
          "indexed": true,
          "internalType": "bytes32",
          "name": "role",
          "type": "bytes32"
        },
        {
          "indexed": true,
          "internalType": "bytes32",
          "name": "previousAdminRole",
          "type": "bytes32"
        },
        {
          "indexed": true,
          "internalType": "bytes32",
          "name": "newAdminRole",
          "type": "bytes32"
        }
      ],
      "name": "RoleAdminChanged",
      "type": "event"
    },
    {
      "anonymous": false,
      "inputs": [
        {
          "indexed": true,
          "internalType": "bytes32",
          "name": "role",
          "type": "bytes32"
        },
        {
          "indexed": true,
          "internalType": "address",
          "name": "account",
          "type": "address"
        },
        {
          "indexed": true,
          "internalType": "address",
          "name": "sender",
          "type": "address"
        }
      ],
      "name": "RoleGranted",
      "type": "event"
    },
    {
      "anonymous": false,
      "inputs": [
        {
          "indexed": true,
          "internalType": "bytes32",
          "name": "role",
          "type": "bytes32"
        },
        {
          "indexed": true,
          "internalType": "address",
          "name": "account",
          "type": "address"
        },
        {
          "indexed": true,
          "internalType": "address",
          "name": "sender",
          "type": "address"
        }
      ],
      "name": "RoleRevoked",
      "type": "event"
    },
    {
      "inputs": [],
      "name": "DEFAULT_ADMIN_ROLE",
      "outputs": [
        {
          "internalType": "bytes32",
          "name": "",
          "type": "bytes32"
        }
      ],
      "stateMutability": "view",
      "type": "function"
    },
    {
      "inputs": [],
      "name": "ISSUER_ROLE",
      "outputs": [
        {
          "internalType": "bytes32",
          "name": "",
          "type": "bytes32"
        }
      ],
      "stateMutability": "view",
      "type": "function"
    },
    {
      "inputs": [],
      "name": "credentialRegistry",
      "outputs": [
        {
          "internalType": "contract ICredentialRegistry",
          "name": "",
          "type": "address"
        }
      ],
      "stateMutability": "view",
      "type": "function"
    },
    {
      "inputs": [
        {
          "internalType": "bytes32",
          "name": "role",
          "type": "bytes32"
        }
      ],
      "name": "getRoleAdmin",
      "outputs": [
        {
          "internalType": "bytes32",
          "name": "",
          "type": "bytes32"
        }
      ],
      "stateMutability": "view",
      "type": "function"
    },
    {
      "inputs": [
        {
          "internalType": "bytes32",
          "name": "role",
          "type": "bytes32"
        },
        {
          "internalType": "address",
          "name": "account",
          "type": "address"
        }
      ],
      "name": "grantRole",
      "outputs": [],
      "stateMutability": "nonpayable",
      "type": "function"
    },
    {
      "inputs": [
        {
          "internalType": "bytes32",
          "name": "role",
          "type": "bytes32"
        },
        {
          "internalType": "address",
          "name": "account",
          "type": "address"
        }
      ],
      "name": "hasRole",
      "outputs": [
        {
          "internalType": "bool",
          "name": "",
          "type": "bool"
        }
      ],
      "stateMutability": "view",
      "type": "function"
    },
    {
      "inputs": [
        {
          "internalType": "bytes32",
          "name": "role",
          "type": "bytes32"
        },
        {
          "internalType": "address",
          "name": "callerConfirmation",
          "type": "address"
        }
      ],
      "name": "renounceRole",
      "outputs": [],
      "stateMutability": "nonpayable",
      "type": "function"
    },
    {
      "inputs": [
        {
          "internalType": "bytes32",
          "name": "role",
          "type": "bytes32"
        },
        {
          "internalType": "address",
          "name": "account",
          "type": "address"
        }
      ],
      "name": "revokeRole",
      "outputs": [],
      "stateMutability": "nonpayable",
      "type": "function"
    },
    {
      "inputs": [
        {
          "internalType": "bytes4",
          "name": "interfaceId",
          "type": "bytes4"
        }
      ],
      "name": "supportsInterface",
      "outputs": [
        {
          "internalType": "bool",
          "name": "",
          "type": "bool"
        }
      ],
      "stateMutability": "view",
      "type": "function"
    },
    {
      "inputs": [
        {
          "components": [
            {
              "internalType": "address",
              "name": "issuer",
              "type": "address"
            },
            {
              "internalType": "address",
              "name": "subject",
              "type": "address"
            },
            {
              "internalType": "bytes32",
              "name": "credentialSubject",
              "type": "bytes32"
            },
            {
              "internalType": "uint256",
              "name": "validFrom",
              "type": "uint256"
            },
            {
              "internalType": "uint256",
              "name": "validTo",
              "type": "uint256"
            }
          ],
          "internalType": "struct IVerifier.VerifiableCredential",
          "name": "_vc",
          "type": "tuple"
        },
        {
          "internalType": "bytes",
          "name": "_signature",
          "type": "bytes"
        }
      ],
      "name": "verifyCredential",
      "outputs": [
        {
          "internalType": "bool",
          "name": "",
          "type": "bool"
        },
        {
          "internalType": "bool",
          "name": "",
          "type": "bool"
        },
        {
          "internalType": "bool",
          "name": "",
          "type": "bool"
        }
      ],
      "stateMutability": "view",
      "type": "function"
    }
  ],
  "bytecode": "0x608060408181523461015257610cb1803803809161001d8286610157565b84398201906080838303126101525782516001600160401b039390848111610152578361004b91830161017a565b926020820151908582116101525761006491830161017a565b916060818301519201519360018060a01b03851680950361015257610088336101e9565b508151608081018181108882111761013c57835281815284602082015283838201526060309101526020815191012092602081519101209181519260208401947f8b73c3c69bb8fe3d512ecc4cf759cc79239f7b179b0ffacaa9a75d522b39400f865283850152606084015260808301523060a083015260a0825260c08201948286109086111761013c57849052519020600255600180546001600160a01b031916919091179055610a37908161027a8239f35b634e487b7160e01b600052604160045260246000fd5b600080fd5b601f909101601f19168101906001600160401b0382119082101761013c57604052565b919080601f840112156101525782516001600160401b03811161013c57602090604051926101b183601f19601f8501160185610157565b8184528282870101116101525760005b8181106101d657508260009394955001015290565b85810183015184820184015282016101c1565b6001600160a01b031660008181527fad3228b676f7d3cd4284a5443f17f1962b36e491b30a40b2405849e597ba5fb5602052604081205490919060ff1661027557818052816020526040822081835260205260408220600160ff1982541617905533917f2f8788117e7eff1d82e926ec794901d17c78024a50270940304540a733656f0d8180a4600190565b509056fe6080604052600436101561001257600080fd5b6000803560e01c90816301ffc9a7146100ba57508063248a9ca3146100b55780632f2ff15d146100b057806336568abe146100ab57806382aefa24146100a657806391d14854146100a1578063a217fddf1461009c578063b948c3d414610097578063c501e6f9146100925763d547741f1461008d57600080fd5b610496565b6103e8565b6102f8565b6102dc565b610285565b61024a565b6101e7565b6101a3565b61015e565b3461015b57602036600319011261015b57600435907fffffffff00000000000000000000000000000000000000000000000000000000821680920361015b57507f7965db0b000000000000000000000000000000000000000000000000000000008114908115610131575b50151560805260206080f35b7f01ffc9a70000000000000000000000000000000000000000000000000000000091501481610125565b80fd5b3461018d57602036600319011261018d5760043560005260006020526020600160406000200154604051908152f35b600080fd5b6001600160a01b0381160361018d57565b3461018d57604036600319011261018d576101e56024356004356101c682610192565b8060005260006020526101e06001604060002001546107e3565b610850565b005b3461018d57604036600319011261018d5760243561020481610192565b336001600160a01b03821603610220576101e5906004356108ee565b60046040517f6697b232000000000000000000000000000000000000000000000000000000008152fd5b3461018d57600036600319011261018d5760206040517f114e74f6ea3bd819998f78687bfcb11b140da08e9b7d222fa9c1f1ba1f2aa1228152f35b3461018d57604036600319011261018d57602060ff6102d06024356102a981610192565b600435600052600084526040600020906001600160a01b0316600052602052604060002090565b54166040519015158152f35b3461018d57600036600319011261018d57602060405160008152f35b3461018d57600036600319011261018d5760206001600160a01b0360015416604051908152f35b7f4e487b7100000000000000000000000000000000000000000000000000000000600052604160045260246000fd5b60a0810190811067ffffffffffffffff82111761036a57604052565b61031f565b90601f8019910116810190811067ffffffffffffffff82111761036a57604052565b81601f8201121561018d5780359067ffffffffffffffff821161036a57604051926103c6601f8401601f19166020018561036f565b8284526020838301011161018d57816000926020809301838601378301015290565b3461018d57366003190160c0811261018d5760a01361018d5760405161040d8161034e565b60043561041981610192565b815260243561042781610192565b602082015260443560408201526064356060820152608435608082015260a43567ffffffffffffffff811161018d576104929161046b610471923690600401610391565b90610523565b60408051931515845291151560208401521515908201529081906060820190565b0390f35b3461018d57604036600319011261018d576101e56024356004356104b982610192565b8060005260006020526104d36001604060002001546107e3565b6108ee565b9081602091031261018d575190565b6040513d6000823e3d90fd5b9081602091031261018d575161050881610192565b90565b9081602091031261018d5751801515810361018d5790565b60025461054761053b6001546001600160a01b031690565b6001600160a01b031690565b82516001600160a01b031660209485610569818701516001600160a01b031690565b604087810151606089015160808a015192517f58325f3c0000000000000000000000000000000000000000000000000000000081527f902a6764922f9d633d215dfd292c17df01ca36b99d7b7ed559f605efc1e1502060048201526001600160a01b0397881660248201529390961660448401526064830152608482019490945260a48101939093528260c481865afa91821561077e576106c09461065a6106688995610671946000916107b6575b50604051928391888301958690916042927f19010000000000000000000000000000000000000000000000000000000000008352600283015260228201520190565b03601f19810183528261036f565b51902091610984565b6040517f9052944e000000000000000000000000000000000000000000000000000000008152600481019490945260ff1660248401526044830191909152606482015292839081906084820190565b0381845afa90811561077e57610733938593600093610783575b50516001600160a01b03165b6040517f87cf356e0000000000000000000000000000000000000000000000000000000081526001600160a01b039182166004820152921660248301529092839190829081906044820190565b03915afa91821561077e57600092610751575b505060019160019190565b6107709250803d10610777575b610768818361036f565b81019061050b565b3880610746565b503d61075e565b6104e7565b6106e69193506107a890853d87116107af575b6107a0818361036f565b8101906104f3565b92906106da565b503d610796565b6107d69150873d89116107dc575b6107ce818361036f565b8101906104d8565b38610618565b503d6107c4565b80600052600060205260ff61080f336040600020906001600160a01b0316600052602052604060002090565b5416156108195750565b604490604051907fe2517d3f0000000000000000000000000000000000000000000000000000000082523360048301526024820152fd5b6000908082528160205260ff61087c8460408520906001600160a01b0316600052602052604060002090565b54166108e857808252816020526108a98360408420906001600160a01b0316600052602052604060002090565b600160ff198254161790557f2f8788117e7eff1d82e926ec794901d17c78024a50270940304540a733656f0d6001600160a01b033394169280a4600190565b50905090565b6000908082528160205260ff61091a8460408520906001600160a01b0316600052602052604060002090565b5416156108e857808252816020526109488360408420906001600160a01b0316600052602052604060002090565b60ff1981541690557ff6391f5c32d9c69d2a47ea670b442974b53935d1edc7fd64eb21e047a839171b6001600160a01b033394169280a4600190565b60418151036109a3576020810151916060604083015192015160001a90565b60646040517f08c379a000000000000000000000000000000000000000000000000000000000815260206004820152601860248201527f496e76616c6964207369676e6174757265206c656e67746800000000000000006044820152fdfea2646970667358221220191b28a1e73c44320e58cb2ad6f100ab888d0af82a7a90b52728ba054a295d7464736f6c63430008180033",
  "linkReferences": {},
  "deployedLinkReferences": {}
}